:1000000000000420750300005D0300002D41000086
:1000100061030000630300006503000000000000AE
:100020000000000000000000000000006703000066
:1000300069030000000000006B0300006D03000076
:10004000855F00006F030000955F0000F964000009
:100050006F0300006F030000455C00006F030000A9
:100060006F0300006F0300006F0300006F030000C8
:100070006F0300006F0300006F0300006F030000B8
:100080006F030000E91400006F0300006F0300001D
:10009000851500006F0300006F0300006F03000070
:1000A0006F0300006F0300006F0300006F03000088
:1000B0006F0300006F03000000000000000000005C
:1000C0006F0300006F0300006F0300006F03000068
:1000D0006F0300006F0300006F030000B98200008F
:1000E0006F030000756400006F0300000000000053
:1000F000000000006F030000000000006F0300001C
:1001000000000000000000000000000000000000EF
:1001100000000000000000000000000000000000DF
:1001200000000000000000000000000000000000CF
:1001300000000000000000000000000000000000BF
:1001400000000000000000000000000000000000AF
:10015000000000000000000000000000000000009F
:10016000000000000000000000000000000000008F
:10017000000000000000000000000000000000007F
:10018000000000000000000000000000000000006F
:10019000000000000000000000000000000000005F
:1001A000000000000000000000000000000000004F
:1001B000000000000000000000000000000000003F
:1001C000000000000000000000000000000000002F
:1001D000000000000000000000000000000000001F
:1001E000000000000000000000000000000000000F
:1001F00000000000000000000000000000000000FF
:10020000354936480A1A02D0072291438D463449AF
:1002100034480A1A06D00722914381F30988022242
:1002200082F3148830483149314A00F044F83148AB
:100230003149324A00F03FF831483249324A00F041
:100240003AF832483249334A00F035F832483349F7
:10025000334A00F030F833483349344A00F02BF881
:1002600033483449344A00F026F8344834490022EF
:1002700000F02CF833483449002200F027F83348C6
:100280003349091A082902DB002202604160314A21
:1002900090471F481F49884205D00268043003B4C4
:1002A000904703BCF7E700208646EC46002000217B
:1002B000294A9047FEE7884207D0521A05D00378B2
:1002C00001300B700131013AF9D17047884202D0F8
:1002D00002700130FAE770470000042000E00320BC
:1002E00000000420000004204CD600000000002084
:1002F00058000020D4030000D403000080B50000A3
:100300004CD6000000000020000000200CB60000C9
:100310000CB600000CB600000CB600000CB60000D5
:100320000CB600000CB600000CB600004CD6000065
:10033000A4D60000580000205800002058000020DB
:100340005423032054230320542303205423032045
:10035000544303209D030000618D0000FEE7FEE78B
:10036000FEE7FEE7FEE7FEE7FEE7FEE7FEE7FEE765
:10037000704700BF1048804710484FF0070188437E
:1003800085460F4880470F48016841F470010160BD
:10039000BFF34F8FBFF36F8FFFF732BF0A480B4990
:1003A0000B4A884207D0521A05D0037801300B70EF
:1003B0000131013AF9D170477103000000000420B7
:1003C00051A8000088ED00E00CB6000000000020FD
:0403D0000000002009
:1003D400F0B595B01C46164608460D4604F0D3FF0A
:1003E4001A9B0D93CDE90864002423460C2205A929
:1003F40028460A948DF82C400C9404F0EBFF079BDC
:100404000293069B03939DF814308DF8114003F07A
:100414000302012A1DD1BDF81440059EC3F3C20393
:10042400C4F383148DF81030A2000C230EA92846BF
:1004340004F0D0FFC6F3952608AB0093224602AB26
:100444000EA9304600F05EFC284604F0A0FF15B06B
:10045400F0BD022AF8D1BDF81640C3F3C203A409C3
:100464008DF810300C27082C264628BF08263B465A
:1004740032460EA9284604F0ADFFA41B08AB02AA1D
:1004840031460EA8374400F0A1FC002CEBD1DBE789
:10049400014B01221A707047990000207047000038
:1004A40070B50F4D06460FCD88B06C460FC495E865
:1004B4000F00002E84E80F004FF00603094A0A4893
:1004C400009308BF0022694605F00AF918B1074AEB
:1004D400432100F03DFF064B1E7008B070BD00BF05
:1004E4000CB60000950400000000002038B600009F
:1004F4005800002007B5044B0093044A4023FFF73B
:1005040067FF03B05DF804FB1505000059000020E7
:1005140038B50E4B0E4D002018700E4804782D5D32
:10052400D2B21C4675B1043006F0F6FC18B10A4A82
:10053400532100F00DFF094B1A7812B12378002BD8
:10054400FBD038BD0C3006F07FFAEFE799000020AD
:100554003C0A00200000002038B6000058000020AB
:1005640008B50848084A0378D35C3BB1043006F068
:100574007DFC0020BDE80840FFF792BF0C3006F078
:100584000DFAF6E7000000203C0A00200120FFF7E6
:1005940087BF000008B5FFF7F9FF0421064800F003
:1005A400EFFA002803DA0549482003F06BFE044BF8
:1005B40001225A7108BD00BFE8B500008EB60000E4
:1005C40014000020037813F0040216D003F0030390
:1005D400012B03D0022B09D0012070470A68008840
:1005E4000332C0F3831002440A60F5E70B684288C3
:1005F400033303EB92130B60EEE7104670470000E1
:100604002DE9F04F464C0F4687B00546C61C002026
:10061400914603F04DFD20683860D4E9013213445B
:1006240001331B1A04F21C4704F5836A04F21448CC
:10063400B34217D30022B9F1000F6AD0052363F344
:10064400070265F389122168A3680B4003330E4443
:10065400002044F82320266003F03AFD012007B06F
:10066400BDE8F08F0121384603F0C1FE504603F087
:10067400E1FE404603F0DEFE6068A3680290184085
:10068400033004EB800002A90193FFF79BFF83462C
:10069400DDE90130BBF1000FF1D103EA000204EB04
:1006A4008202411CD26803920B4004EB830302F0E4
:1006B4000302D968012A00F10303029321D0022A1C
:1006C40005D018494FF4BF7003F0DCFD08E0BDF815
:1006D4000E00800903304FEA114B03EB90000290A7
:1006E400404603F0AAFE08B1029B636059463846AF
:1006F40003F07DFED4E901231344226801339B1ADD
:1007040096E7BDF80C00C0F383104FEA114B184470
:10071400E5E7062363F3070265F39F5293E700BFFF
:100724006C010020F9B6000038B50546D0B10E4C76
:10073400FF23A36008460023C4F81834C4E9003337
:10074400C4F8143484F8203400F09AFB0748C4F841
:100754000C5404F0D1FD044610B9054804F04EFED3
:10076400204638BD0724FBE76C010020F8B50000E3
:100774004CB7000030B50A4C71B10A4A0A49121B41
:10078400D20800239A4201D1002030BD31F8235011
:10079400854202D00133F5E7034654F83300F4E709
:1007A40080B50000E8B5000000000020094B0139C5
:1007B40003EBC000032909D8DFE801F00A020406AC
:1007C40004207047007970474079704700207047D3
:1007D4000220704780B50000034BD3E90030C31AF0
:1007E40058425841704700BF6C0100202DE9F04386
:1007F40085B0FFF7F1FF0646002840F0FD807F4DED
:10080400C5F81804BFF34F8F6868AC6800902040A7
:10081400033005EB80006946FFF7D4FE009B18B156
:10082400D5F81824002A65D0591C214005EB810114
:1008340004EA0302C9680291D91C023305EB82025F
:10084400234005EB8303D268DB68039302F00303C0
:10085400022B0192009162D1BDF8063068484FEA3C
:100864009318B8F1500FC14628BF4FF0500969F3EF
:100874008F1309F10C01ADF8063004F055FD07465D
:10088400002800F0A48004F07EFD01A900230C22BE
:10089400384604F08BFD009924EA01060136B600BF
:1008A400B14535D95FFA89F97EB3F6B2A9EB0609E9
:1008B400214003315FFA89F4B146524E05EB8101C0
:1008C4000C234A46384604F071FD36B109F10C0395
:1008D40022463146384604F069FD009B08F10308BE
:1008E40003EB98030093D5F81834002B4BD1D5F8BB
:1008F40010445BE02A689A4204D86A60304605B026
:10090400BDE8F08304EA030082E73E493446D7E7B2
:10091400214003310C234A4605EB8101DAE7012B20
:1009240055D1BDF804303648C3F38311062928BFD6
:10093400062161F3891303318900ADF8043004F012
:10094400F3FC0746002842D004F01DFD00230C22CE
:1009540001A9384604F02AFD0026BDF80420C2F39C
:100964008312B300964203F10C03BCD200994A1CD3
:1009740021400331009205EB81010422384604F042
:1009840015FD0136E9E7384604F001FDFFF724FFC1
:1009940080F00100C6B2B1E7E3685B7923B1236854
:1009A40039461B6820469847E3681C68002CF3D13D
:1009B400384604F0ECFC204603F07AFBD5F81834F2
:1009C4000BB9009B6B60002003F082FBDEE7D5F8D7
:1009D400104454B90C4B0D480D49C01AC00800040A
:1009E40040F0020000F08AF8D0E7236820469B68B4
:1009F4009847E3681C68ECE700267FE76C01002059
:100A0400F8B500007801002080B50000B8B50000FA
:100A140058B700002DE9F74F334C814688461646F7
:100A240001A9012218461F46D4F808A0FFF7E8FDE3
:100A3400002845D0019D0023E81CBB4203EB0002C3
:100A440048D10021294803F0B2FC80F3100B284B55
:100A5400284A4FEA19469B1AB6EBD30F04D326490A
:100A640040F2A31003F00EFC6B1C03EA0A0304EB30
:100A7400830346EA0B46DE60D4F80C34AE1C984778
:100A840006EA0A0604EB860605EA0A030333F06065
:100A940014F8232069F3C50204F8232034F8232032
:100AA40067F3891224F8232054F8232068F39F2243
:100AB40044F8232002F0F80242F0010204F8232053
:100AC40094F820341BB1FFF791FE0028FBD103B04A
:100AD400BDE8F08F0AEA020204EB820256F8231002
:100AE400D1600133A9E700BF6C0100208805002014
:100AF400E8B5000080B50000F9B6000000231A46EE
:100B0400FFF788BF07B50123019201AAFFF782FF0F
:100B140003B05DF804FB07B5CDE9002302236A4660
:100B2400FFF778FF03B05DF804FB1FB5CDE901239F
:100B3400069B039301AA0323FFF76CFF05B05DF83E
:100B440004FB1FB5CDE90023069B0293079B039387
:100B54006A460423FFF75EFF05B05DF804FB7FB52A
:100B6400CDE90123089B0393099B04930A9B0593F6
:100B740001AA0523FFF74EFF07B05DF804FB000050
:100B840030B50F49D1F81024002314463CB9C46889
:100B9400237152B9C1F810042260184630BDE468CC
:100BA40025799D4206D02468F0E7D2681168216057
:100BB4001060F2E701330A2BE7D14FF0FF33ECE783
:100BC4006C010020094A38B50123D2F8104482F898
:100BD40020341D4604B938BDE3685D71236820469E
:100BE4005B689847E3681C68F4E700BF6C01002069
:100BF400037A052B10B50C460FD0437A23B1084A6B
:100C04000849204604F032F90749204604F02EF939
:100C14002046BDE8104004F017B9002AF8D0F3E7E5
:100C24009FB70000A4B7000080D00000F0B5C388CF
:100C340085B004460D4633B1284A00922849294A12
:100C4400284604F013F9217A052945D0637A4BB17B
:100C5400A088FFF7ABFD244B244953F820202846F5
:100C640004F004F9224A23681168B3FBF1F1214B23
:100C74001F68B1FBF7F34FF461664FF47A70B3FB6E
:100C8400F6F206FB123607FB13134FF03C0C00FB85
:100C940003F1B6FBFCF3B1FBF7FE0CFB136607FB99
:100CA4001E11009641432846B1FBF7F1CDE901E15D
:100CB400114904F0DBF8227A104BA08853F8226023
:100CC4000021FFF757FD0E4903463246284605B07A
:100CD400BDE8F04004F0CAB805B0F0BD9FB700000D
:100CE400AFB70000A7B7000070B70000A4B70000BA
:100CF4002C06002028060020C7B70000F0B700002B
:100D0400E3B700002DE9F04385B01F460C9D002396
:100D140006460C46904695F80C902B7329463846A7
:100D2400FFF784FFB8F1060F09D8DFE808F00412D2
:100D3400181F283340003146284604F097F8002253
:100D440029463846FFF754FF85F80C9005B0BDE8F6
:100D5400F08322683146284604F088F8EFE7D4E9A6
:100D640000233146284604F081F8E8E7A36800939D
:100D74003146D4E90023284604F078F8DFE7E36835
:100D84000193A36800933146D4E90023284604F074
:100D94006DF8D4E723690293E3680193A368009391
:100DA4003146D4E90023284604F060F8C7E76369B4
:100DB400039323690293E3680193A3680093314684
:100DC400D4E90023284604F051F8B8E708292DE9AE
:100DD400F84F80460E4617461C463AD8002593F82D
:100DE4000C901D7319461046FFF720FFDFF884A00E
:100DF400DFF884B0AE422ED918F8052059462046B3
:100E040004F034F80135082DF4D11849DFF86CB03A
:100E1400204604F02BF84FF0000A564520D918F864
:100E24000A507E2D03D8284609F0E7FE00B92E2586
:100E34002A465946204604F019F80AF1010ABAF183
:100E4400080FEAD1012221463846FFF7D1FE84F883
:100E54000C90BDE8F88F5146204604F007F8D1E71E
:100E64000349204604F002F8E7E700BF9AB7000000
:100E7400D0D30000CED3000094B700009CB700008C
:100E8400084A10B50123084C13600021A04204D87D
:100E940001B11360054B186010BD40085B000121CF
:100EA400F4E700BF2C06002040420F002806002073
:100EB40003682F2B10B5044604D907494FF4F37087
:100EC40003F0E0F923681F2B83BF03F01F032360A3
:100ED40002484FF0A04010BD94B800000003005039
:100EE400032813B5044603D909493A2003F0CAF983
:100EF400084B01A81B5D0193FFF7DAFF019BD0F8B3
:100F04000405D840C04300F0010002B010BD00BF8A
:100F14004FB8000090B80000032813B5044603D965
:100F24000849412003F0AEF9074B01A81B5D01936A
:100F3400FFF7BEFF019A01239340C0F80C3502B0BD
:100F440010BD00BF4FB8000090B80000032813B5CF
:100F5400044603D90849472003F094F9074B01A834
:100F64001B5D0193FFF7A4FF019A01239340C0F88E
:100F7400083502B010BD00BF4FB8000090B80000A3
:100F840008B50020FFF7E2FF0120FFF7DFFF022092
:100F9400FFF7DCFF0320BDE80840FFF7D7BF08B523
:100FA4000020FFF7B9FF0120FFF7B6FF0220FFF78B
:100FB400B3FF0320BDE80840FFF7AEBF032813B515
:100FC400044603D90B495F2003F05CF90A4B01A8DE
:100FD4001B5D0193FFF76CFF0199D0F804350122E2
:100FE4008A4022EA03011340C0F80815C0F80C3502
:100FF40002B010BD4FB8000090B800000B2809D013
:101004000C2809D0182809D019280CBF03204FF048
:10101400FF3070470020704701207047022070475E
:10102400F7B5C207054612D5134E0024032716F858
:10103400013B019301A8FFF73BFF019B013403F53A
:10104400E073042C40F82370F1D1FFF799FFAB074C
:1010540010D50A4D00240C2615F8013B019301A874
:10106400FFF726FF019B013403F5E073042C40F8DD
:101074002360F1D103B0F0BD90B800008CB800003B
:101084002DE9F04F394E87B04FF00009384B1B78EB
:101094005FFA89F5AB4202D807B0BDE8F08F354B53
:1010A400D3F800A01AF835000124D6E9001EA0F1F7
:1010B4002002C0F1200304FA02F224FA03F31343DA
:1010C40004FA00FC009301EA0C030293009B0EEA6D
:1010D40003030393DDE9022313430AEBC50B41D059
:1010E400009B21EA0C012EEA0303C6E9001304F075
:1010F4008FFD1AF835502049A5F12002C5F12003CF
:1011040004FA02F224FA03F31343D1E900C2AC4017
:10111400134004EA0C0105930024C3B2CDE9003462
:10112400009A0491C5F12003A5F1200122FA03F3EA
:1011340002FA01F848EA03081346AB401F46DDE90A
:101144000434444508BFBB420CD1DBF804304BB136
:101154009BF801104A1E51425141081A4142414133
:101164002846984709F1010990E700BF600600206E
:101174003006002068060020580600202DE9F041C2
:101184008046204800F0DCFBD0BB0125A8F12004F8
:10119400C8F1200325FA03F305FA04F41C431A4B9F
:1011A400D3E9001205FA08F501EA050602EA040784
:1011B40056EA07001E461DD1404604F029FD134B94
:1011C400D3E9001288B129432243C3E90012D6E9C6
:1011D40000231C430E4B0B4819681543C6E9005401
:1011E4000022BDE8F04100F069BB21EA050122EAD2
:1011F4000402EAE721EA050522EA0404C3E90054EB
:10120400BDE8F08138060020600600205806002062
:1012140034060020042A2DE9F34105460C461646FF
:101224003AD904F003FCD8B11C4B1D491D601D4B79
:10123400DFF884801C701C4B00221E600023C1E96F
:1012440000231A49C1E90023013CE4B20026032724
:10125400FF2C0CD1164A1748002100F01DFB03E0B7
:1012640004F0ACFB0028DFD002B0BDE8F08123B26B
:1012740005EBC30201A992788DF8052015F8330017
:101284008DF8066042468DF8047004F0D9FB013CE9
:10129400E4B20028DCD0E7E70720E5E76806002091
:1012A4005806002030060020340600206006002086
:1012B4008510000010B900008111000070B50B4DBD
:1012C4002A681AB90A49BA2002F0DCFF094E002440
:1012D4003378A34201D8002070BD2B68012113F894
:1012E400340004F037FC0134F2E700BF6806002044
:1012F400C2B800003006002082B001238DF8073008
:101304009DF80730114B1860596044F2010188427E
:101314009A6012D044F20201884206D1DA60DA6897
:1013240012889A61DA685268DA6172B69DF80730F9
:10133400002BFBD162B602B070471A611A69926839
:101344005A611A6912689A611A69ECE76C060020FE
:1013540000B583B002900091019244F201007146FD
:101364006A4600F003F803B000BD00002DE9FF4118
:1013740006460F46154672B6FFF724FCFFF736FA09
:101384000028FBD11E4B1F4CE41AE40844F201036D
:1013940024049E4244F0010416D044F202039E4207
:1013A40027D12B886A6818492046FFF7B4FB174BEE
:1013B4001B68DB0700D500BE2A463946304604B018
:1013C400BDE8F041FFF798BFD5F80880404604F027
:1013D4004BF82B68029701936B68009342460346CF
:1013E4000B492046FFF7BBFB0A492046FFF786FB63
:1013F400DDE73A4608492046FFF784FBD7E700BFFC
:1014040080B50000B8B5000014B90000F0ED00E0AC
:101414002EB9000054B9000068B90000094A537895
:1014240091780133DBB2994208BF002311789942C5
:101434001FBF03705078182303FB002014BF04302F
:10144400002070478C06002037B5044600200D4666
:1014540002F02EFE0DF10700FFF7E0FF90B10570DA
:10146400094B9DF8072044605A700024002002F0C4
:101474002FFE24B9054B4FF48012C3F800212046F7
:1014840003B030BD0424F1E78C06002000E100E045
:10149400024B4FF43C6043F00103184780B900004D
:1014A40038B50C4B0C4C4FF40032C3F880200125A6
:1014B4004FF48033C4F84833C4F808336560FFF749
:1014C400E7FF064BA56000241C60FFF7E1FF044B17
:1014D4001C7038BD00E100E000100140A8070020A6
:1014E40099070020F8B51F4B1F491B680025C1F858
:1014F4004051C1F84451C1F84851C1F84C51C1F8A8
:101504000051C1F804514BB3D1F804451749096897
:10151400641A24F07F442F461A68A24209D8A41AF8
:1015240015441A7CDE691AB11F74D3E9052090476B
:10153400AEB90F4A0F4B11781B788B4205D101339A
:10154400DBB2022B08BF0023137012780A4B43F856
:1015540022500A4B4FF48012C3F80021F8BD3346E1
:10156400DAE700BFAC07002000100140A807002004
:10157400A5070020A40700209C07002000E100E04C
:101584002DE9F04FA14AA24913780978A14D994257
:1015940085B03CD00133DBB2022B08BF00231370AB
:1015A4009D4912789D4B0F6853F822003B1823F095
:1015B4007F4300220B602B6816461446944613B9E9
:1015C40042B12B6006E0196881420ED902B12B604A
:1015D400091A196001272B68DFF848A201934FF01C
:1015E4000008BEB9DFF844B266E0401A0C44D9687A
:1015F400C3F800C0D3F81CE031B13A1922F07F429D
:10160400C3E90121DE611E4601227346D7E70026A5
:101614003746E0E73446F6697F4A63681268DFF8C4
:1016240010C2A068991A21F07F41614500F2A6809A
:1016340001442160012222742A680023C4E9013391
:10164400E361002A40F0A3802C60CAE75A1C9BF88F
:101654000210D2B291428BF8002004BF00228BF812
:101664000020182202FB03B31A799C68022A1CD0BA
:10167400032A12D0012A1FD1207CE8B9D3E903122E
:10168400A2605A69E2609A69654BA2611B78002BDB
:101694000CBF0B4603466360BEE700222B6811466D
:1016A400002B67D142B12B6006E029680A468946BF
:1016B400002A5AD1002323749BF800309BF80120A0
:1016C4009A42C3D12B68B8F1000F04D1019A9A420F
:1016D40001D1002F43D0002B73D0D3F800A0514D7B
:1016E4004D4BD5F804751C68DFF848813E1B98F80B
:1016F400003026F07F4603369BB94FF48033C5F89B
:101704004433C5F80433484B4FF400324FF0010919
:10171400C3F880211A60C5F80090FFF7B9FE88F875
:101724000090B2452CBF5444A41924F07F44C5F85A
:101734004045D5F80435DB1B23F07F43E41B03331A
:1017440024F07F44A3420AD9D5F80435C5F84035BE
:10175400FFF79EFE344B4FF40032C3F80021304BA8
:1017640000221A7005B0BDE8F08F94422CD0914647
:10177400D2699DE719740122DB6991E7D31A23F03A
:101784007F43834234BFC31A0023236052E7216896
:101794001368994213D8591A1160E26154E7091A7F
:1017A400D8691A4638B1034618688842F7D3401AF4
:1017B4001860184613462160E061DC6111E71346A6
:1017C400F2E7FFF76DFECAE74C4511D1CB692B60F8
:1017D40073B9DFF844E00120CDE90212CAF8080029
:1017E400CEF800300E4B1870FFF752FEDDE90212FE
:1017F4001368D269C9F81C2012B11068034413603D
:101804002B68994218BF4FF0010853E7A407002042
:10181400A5070020AC070020A80700209C07002093
:10182400980700200010014000E100E08C06002031
:10183400FEFF7F009907002008B5FFF731FE104B2B
:1018440000200B2218809A700E4B18600E4B1870F3
:101854000E4B18700E4B4FF48012C021C3F8802138
:1018640083F814131A6002F18042A2F56F22C2F8C1
:10187400080583F81113074BD2F804251A6008BD34
:101884008C060020AC070020A4070020A507002038
:1018940000E100E0A8070020074B9B784BB132B170
:1018A40028B10368187C20B959745A61704707201D
:1018B40070470820704700BF8C0600202DE9F341D3
:1018C4001C4EB37804460D4617468BB380B30429E7
:1018D4002CD9436963B3437C0020012B0CBF884699
:1018E4004FF0000802F0E4FB0DF10700FFF796FD4E
:1018F400D0B101230370104B4460D3F80435C0E920
:101904000487C0E902359DF8073073700024002075
:1019140002F0DEFB24B9094B4FF48012C3F8002116
:10192400204602B0BDE8F0810424F0E70724F7E77D
:101934000824F5E78C0600200010014000E100E0D7
:10194400064A92783AB130B1426922B10022027457
:101954000221FFF779BD0820704700BF8C060020E4
:10196400024B5B6803B11847704700BFB4070020FF
:10197400024B01465A681868104700BF0808002047
:1019840038B50D46044620B9064940F2431002F02A
:1019940079FC6378AB4283BFA0784019001900201A
:1019A40038BD00BF8DB9000038B50D46044620B9D6
:1019B40006494FF4887002F065FC237AAB4283BF7A
:1019C400093405EB45056019002038BD8DB90000C8
:1019D40070B50D46044620B90D4940F20F1002F0CF
:1019E40051FC636823B90A494FF4887002F04AFC39
:1019F40063681B6823B9064940F2111002F042FCE7
:101A04006368294620461B68BDE87040184700BF3C
:101A140026BA000010B5044620B9044940F2432018
:101A240002F030FC2368186810BD00BFDFB9000065
:101A340000F00F0310F0800F10B51CB20AD0082B71
:101A440004D909494FF4CC7002F01CFC074800EBA0
:101A5400C40010BD082B04D903494FF4CF7002F021
:101A640011FC0348F3E700BF26BA0000C0070020BA
:101A74000808002070B50D460646FFF7D9FF044656
:101A840005604DB9730604D105494FF4E17002F0C5
:101A9400F9FB0023636070BD6B681B68FAE700BF45
:101AA40026BA000038B5831EDBB2062B98BF1A4A4B
:101AB4001A4C98BFD25C2378A3F10203DBB288BF2F
:101AC4000022062B9ABF1449CB5C0023934205469F
:101AD40003D0B2B1124803F049FD022D14D0A5F190
:101AE4000800424242412378022B0FD0A3F108019F
:101AF4004B424B41934202D052B105F0C9FE2570CE
:101B040038BD03F06FFDE8E70122ECE70123F1E7BC
:101B140005F0B4FEF3E700BF86B900008409002095
:101B24001C0000200378052B73B504460CD1344AFD
:101B3400D2F88434D2F8802412F0FF0F04D1314A51
:101B4400DBB2052B08BF14462378002B32D12E4B71
:101B54002E4E1D68C5B928462D4D02F0A9FA2A68F3
:101B640012B92C4B62881A800121294802F03FFCEB
:101B7400002002F0ADFA284B1B6813B10121204666
:101B840098472B6802B070BD2B6823B931464FF4D7
:101B94008D7002F077FB2B689B6823B9314640F2C5
:101BA4001B1002F06FFB2B6860889B6898472B68BA
:101BB4005D68CFE701A9194802F084FB05460028B7
:101BC400E0D023680360002002F072FA114B104841
:101BD4001B88026801339B1AEB80002102F0E7FBAB
:101BE400A880002002F074FA01A90C4802F094FBCA
:101BF400094B1B680146002BC4D020469847C1E717
:101C04000070024080BA00007809002026BA000063
:101C14008009002050080020B40700205C0900203F
:101C2400FFF780BF01280AD030B1022809D0064945
:101C340040F2622002F026BB0448FFF773BF044859
:101C4400FBE70448F9E700BF26BA000074BA0000B5
:101C540078BA00007CBA000008B520B1044940F20B
:101C64007B2002F00FFB0348BDE80840FFF75ABF92
:101C740026BA000084BA00002DE9F04F87B0002690
:101C8400054689469246984602966B6800225C682F
:101C94002946012302A8A04740B98DF80600049004
:101CA40004460746BE4203D805202AE00136ECE785
:101CB4006B680DF10602D3F804B02946012304A889
:101CC400D8476B680DF10702D3F804B02946012305
:101CD40004A8D8479DF807304B459DF8063015D128
:101CE400544511D1109A136088F8003088F8019097
:101CF4006A68023B5468294608F1020204A8A04716
:101D0400002007B0BDE8F08F0134E4B26A68023BFA
:101D1400D2F804B02946002204A8D8479DF806301A
:101D24001F44BFE7014B1888704700BF6C090020AF
:101D34002DE9F341054603F0C1FB20B9314940F2D6
:101D4400313002F09FFA08234FF484722E492F4851
:101D540002F0A5FA002853D12D4805F0D3FD04461E
:101D6400002835D12B4B18702B4B18602B4B014698
:101D7400186048222A4808F0FBFF482221462948D7
:101D840008F0F6FF284B3DBBC3E900551D72002047
:101D940003F04CFC30B1852804D01A4A40F25F317C
:101DA400FFF7D6FADFF88480002421464046FFF787
:101DB400FBFD651CEDB20746F8B90B2301A91B48CE
:101DC4008DF80430FFF704FE044608B105F012FC58
:101DD400204602B0BDE8F08195E8070083E80700DB
:101DE400D5E741460078FFF745FEF1B23846FFF7E4
:101DF400C7FD01360028F4D1D7E700262C46F4E7C6
:101E04000324E5E726BA0000520800205C090020FC
:101E1400251C00008409002070090020740900209A
:101E2400C007002008080020B407002094BA00006E
:101E340010B505F0D7FC10B90823184610BD05F0FD
:101E4400D9FC04460028F7D1064803F00AFC0346EF
:101E54000028F2D0044A40F2C231FFF779FA23464F
:101E6400EBE700BF70BA000026BA000005F0D8BB4B
:101E740008B505F0C9FC20B1044940F2D13002F0A4
:101E840001FABDE8084006F01FBB00BF26BA0000F7
:101E940008B505F0AFFC20B90A494FF4767002F09A
:101EA400F1F94FF08043D3F83824920704D506485B
:101EB400BDE80840FFF736BED3F83824D107F2D482
:101EC40008BD00BF26BA000085BA000007B582230A
:101ED40001A88DF80430FFF725FE03B05DF804FB7C
:101EE4002DE9F341044620B93B4940F26A5002F01F
:101EF400C9F9636823B9384940F26B5002F0C2F95A
:101F040063681B6823B9344940F26C5002F0BAF993
:101F140023681B6823B1304940F26D5002F0B2F9D6
:101F240005F068FC30B12C4940F2715002F0AAF976
:101F3400002617E005F056FC0028F9D1F3E70078F5
:101F4400FFF776FD036808F1010823B1112026E0AC
:101F54004FF000083E465FFA88F12846FFF710FD6F
:101F64000028ECD131462046FFF71EFD771CFFB256
:101F740005460028ECD129462046FFF715FD6E1CC6
:101F8400F6B28046D0B9154D134E2B68CBB92C60F0
:101F94000B2301A920468DF80430FFF719FD02B088
:101FA400BDE8F08121460078FFF764FDF9B24046B0
:101FB400FFF7E6FC01370028F4D1DCE700273546BB
:101FC400F4E7A34204D1314640F2975002F05AF9A3
:101FD4002B681D68D9E700BF26BA000070090020ED
:101FE400024B1878003018BF012070477C0900208C
:101FF400030710B5044604D405F0A2FF204606F0FA
:1020040035FB2046BDE8104006F0DCBA06F0A4BA61
:10201400014B1868704700BF700900202DE9F84390
:102024000E4B1C6880460F46ACB194F8089000260D
:10203400F5B2A94504D82046FFF7ECFC0446F3E7C3
:1020440029462046FFF7B0FC0378434506F1010614
:10205400EED107B13D702046BDE8F8837009002039
:102064001146FFF7B5BC00F00F03082B10B50C4662
:1020740008D8FFF7DDFC006820B12146BDE8104018
:10208400FFF7A6BC102010BD38B5074B1C680546E9
:1020940004B938BD29462046FFF79AFC2046FFF7CD
:1020A400B9FC0446F4E700BF7009002038B5084BBA
:1020B4001C6805460CB9062038BD29462046FFF7A2
:1020C40087FC0628F8D12046FFF7A4FC0446F1E774
:1020D4007009002038B504460D4605F05EFC48B191
:1020E400054B1B78022B05D129462046BDE8384014
:1020F40005F060BC082038BD8409002038B50446CA
:102104000D4605F04AFC48B1054B1B78022B05D15E
:1021140029462046BDE8384005F0D6BC082038BD25
:102124008409002043689B6870B505460E46144632
:102134009BB92B7AB34204D20F4940F2F92002F042
:10214400A1F8B4B931462846FFF72EFC4678054677
:10215400E1B2B14205D3002002E098470628E8D056
:1021640070BD2846FFF70CFC0078FFF741FF0134EF
:10217400EEE70720F4E700BF26BA00004368DB68F7
:1021840070B504460D4603B19847237AAB4204D296
:102194000B494FF4467002F075F829462046FFF7C4
:1021A40003FC467805460024E1B28E4200D870BD97
:1021B4002846FFF7E5FB007806F0CEF90134F3E793
:1021C40026BA000043681B6903B1184718467047D4
:1021D400F8B50D4B0D4E1C6804B9F8BD277A0025DF
:1021E400E9B28F4204D82046FFF714FC0446F3E713
:1021F40000222046FFF796FF20B1314640F26A7074
:1022040002F040F80135EBE77009002026BA00001F
:10221400094B70B51C6804B970BD267A0025E9B273
:102224008E42204603D8FFF7F5FB0446F3E7FFF799
:10223400A5FF0135F3E700BF7009002038B5894BCD
:102244001B68054623B9884940F2254002F01AF874
:1022540001F04EFF052804D8834940F22C4002F0D7
:1022640011F82C78092C20D023D8032C00F0BB8043
:1022740012D8012C00F0A58040F289800320FFF7DA
:1022840011FC0220FFF76CFB2846FFF7FDFE2846F1
:10229400BDE83840FFF76CBB052CF8D0C0F0B28025
:1022A400062C00F0BE80082C13D12046FFF758FB03
:1022B40094E0812C14D005D80F2CF6D0802C42D079
:1022C4000A2CF1E7832C4AD01FD3842C50D0852CC0
:1022D400DDD0654940F22650BDE8384001F0D2BF58
:1022E4006248FFF745FB6148FFF7CEFE0D20FFF77C
:1022F40037FBFFF78DFF00F0CAF9012005F03AFA29
:102304000120BDE83840FFF7CDBBFFF781FF06F0A1
:10231400B1F80020FFF7C6FB5548FFF7B5FE544857
:10232400FFF726FB0E20FFF71BFB524B1B78023BEB
:10233400DBB2062B3DD8504AD35C002B39D0BDE824
:10234400384003F04FB94B4B1B78062B05D0072BB5
:1023540001D0052B2DD10220D3E70820D1E7454B2E
:102364001B78032B25D106F0D1F810B30420C8E75D
:10237400404B1B78032B05D106F0C8F810B104209C
:10238400FFF790FB05F04EFA98B10620B9E73B4BF6
:102394006A881A80374B1B78032B01D0082B02D193
:1023A4003748FFF74BFF0020FFF7DAFA354B1C687C
:1023B40004B938BD20462946FFF70AFB23685C6848
:1023C400F6E7FFF725FF00F059F90220FFF76AFB53
:1023D4002046FFF7C5FA2846FFF7CAFA2846BDE8A3
:1023E4003840FFF751BE234B1B78082B06D102203F
:1023F400FFF758FB05F056FA0320EAE70520FFF73C
:1024040051FBF9E70320FFF7ABFA1F48FFF7B0FAD7
:102414001D48FFF739FE174B1B78062B9BD107206D
:102424006FE7A878FFF704FB0368044623B90E4955
:1024340040F2025001F026FF636823B90A4940F2D2
:10244400035001F01FFF636820682946984700285D
:10245400AFD0A8780207ACD00307AAD4BDE83840AF
:1024640005F030BD7009002026BA000086BA0000CD
:1024740087BA00008409002086B900006C09002096
:1024840088BA00007409002089BA000073B5224D8F
:10249400002301932B6823B92049214801F04CFF04
:1024A40028602C68ECB1A68886B1E388B3F5006F88
:1024B40024BF0023E380E388ADF806305A1C013EB4
:1024C400E280A68001A8FFF7B9FE07E02046FFF7E7
:1024D400B5FE1249124801F05AFF2E60012002B0E5
:1024E40070BD104B18680028F9D0204601F0E0FDBB
:1024F4000D4B0C481A88B2F5006F28BF1C801A884F
:10250400ADF80620511C1980012101F086FF00203E
:1025140001F0DEFDD6E700BF88090020B0070020E7
:102524005C0900208009002050080020002070472A
:1025340010B5044620B9044940F2432001F0A2FE3C
:102544002368186810BD00BFDFB900002DE9F04F03
:102554004B6885B081460C4693465BB90868FFF723
:10256400E7FF38B9A5682DB9C9E90055284605B073
:10257400BDE8F08FBBF1400F04D933494FF4CB7061
:1025840001F080FE05F0EAFAE76800905F454FF03D
:10259400000A04F1100328BF5F4656460125019343
:1025A400002F2DD0A3686168BB42984628BFB84667
:1025B40051B3009B4246981908F0B1FB00236360B5
:1025C400A368E268A3EB0803A2EB0802A360E2603D
:1025D400A7EB0807464433B9BAF1000F03D02068CB
:1025E400FFF7A6FF2060E368002B2BD0A368002B25
:1025F400D6D12268B2B9626016B1B34588BF00254E
:10260400009BC9E90036B1E7002BD9D02168009AB4
:102614004B680198D3F804A032444346D0474FF0A6
:10262400010ACDE7029321684B680022D3F80480A5
:1026340002A80123C04708B92061B1E7A3680133A8
:10264400A360F0E71D46ABE7EEBA0000084B1A782A
:1026540082420CD0052818BF064A187018BF137898
:1026640005481CBF23F002031370FFF7E7BD704752
:1026740098090020B4090020A4BA000008B500207D
:10268400FFF7B6FC8020BDE80840FFF7B1BC08B5F1
:102694000020FFF7BBFC8020BDE80840FFF7B6BC74
:1026A40038B505460C4605F0D9FCA84205BFD4E967
:1026B4000001034B1020C3E9000108BF002038BD0E
:1026C400B80900207FB5C38893421D4628BF15462C
:1026D40093420E46144620D9802005F059F9B4FBE4
:1026E400F0F303FB1040B0FA80F04009039000209F
:1026F400CDE9016501F0DCFC01A98020FFF7EAFCCB
:10270400044620B906498020FFF7CAFF044600208A
:1027140001F0DEFC204604B070BD0020E6E700BFF7
:10272400D8BA00002DE9F04F0C78062C87B0074684
:102734000D4600F03F8220D8022C51D003D8012C42
:102744003CD0062453E0032C3CD0052CF9D10DF1E8
:102754000D008DF80C4005F017FC9DF80D60AA4D96
:10276400002306F01F062B60032E00F2C481DFE86D
:1027740016F042007201B90115010D2C00F0078218
:1027840011D80B2C00F0F8810C2CDAD19F4B1B785C
:10279400012B04D09E4940F2514001F073FD00200A
:1027A400FFF754FF1CE00E2C00F0F981852CC8D1F2
:1027B400964B1B78032BC4D1042000E00320FFF7C1
:1027C40045FFBEE7934801F038FE30B1924B012239
:1027D4001A60BFF36F8FBFF34F8F8C4B1C780CB113
:1027E400002404E08A4940F2374001F04BFD2046C2
:1027F40007B0BDE8F08F27B9854940F25D3001F09C
:1028040041FD9DF80D30C3F34112002A40F0C6800B
:10281400DB099DF80E1000F0B280062918D00829B3
:1028240000F0A080002940F0B9807C4C02222046B0
:1028340008F09EFA237843F001022270784A127855
:10284400910744BF43F003032370022273490FE04E
:102854009DF81030022B11D0032B75D0012B40F0C2
:102864009D80BDF81330002B00F0AC806D4912221E
:102874000DF10D00FFF726FF04463BE0BDF81330D1
:10288400002B00F09F80092B28BF09239846FFF7EF
:10289400BFFBDFF87CA104464FF009097CBB5F4C09
:1028A40061494246204608F03AFA2671A4F802909B
:1028B400FFF796FB18B1E37943F02003E371FFF7C8
:1028C400A7FB5A4BC3E90004C3F80880BDF81320E2
:1028D400DA60002001F0ECFB55498020FFF70EFC84
:1028E400044620B953498020FFF7DAFE044600204D
:1028F40001F0EEFB062C51D0002C63D05AE0636843
:1029040023B9514640F2C62001F0BCFC63685B6801
:1029140023B9514640F2C72001F0B4FC00270197C7
:1029240063680022D3F804B02146012301A8D847E4
:1029340040B9237A20461E44FFF7FAFDB944F6B2A3
:102944000446ABE70137EBE7BDF81330002B39D071
:10295400BDF811109DF80F0001F076FB0146E8B1B7
:10296400027885E729490978052903D12B4A137090
:1029740001226BE7042911D1284B1A70F8E70139B9
:1029840008290BD8DFE801F02B0A0E0A050A0A0A07
:1029940038001F4940F2813001F074FC03A8FFF7AE
:1029A40085FB9DE0BDF80F30012BF7D1FFF718FB35
:1029B40018B90F2405F04FFB19E7194A137843F0AF
:1029C400020313702C68002C00F01D8105F046FBF7
:1029D400044600287FF404AF05F0FCFA07E7BDF8CD
:1029E4000F30012BDAD1FFF7FBFA0028E1D00C4AB3
:1029F400137823F00203E4E7044B1B78043B012B18
:102A04001AD90824D6E700BFB80900209809002085
:102A1400EEBA0000C00900205C700240C409002026
:102A2400B4090020C4BA0000A5BA00009C09002023
:102A34003CBB0000D8BA00009DF80F302BB9FFF75B
:102A4400E7FB0420FFF702FEBCE7012B41D1FFF7AF
:102A5400BFFB0520F6E701A99DF81100FFF7DEFA98
:102A6400074608B91024A5E703AA9DF80410FFF748
:102A7400F7FA062804467FF43FAF9DF80D2012F0C4
:102A8400600F97D1624B9DF8041018789DF80E30B2
:102A9400D60915D073B10A2B8CD10528B1D138468B
:102AA400FFF790FB5B49324608700DF10D00FFF70C
:102AB40009FE15E00528A4D156490B800222F4E74B
:102AC4000B2B7FF477AF05289BD1BDF80F30FF2B7C
:102AD40001D907246EE79DF80F203846FFF722FB43
:102AE400044609E79DF81100020706D19DF80D3050
:102AF40013F0600F09D006245CE703A9FFF7B3FACB
:102B0400062804467FF4F8AEF0E79DF80E20404B0B
:102B14009DF811401B78012A1CD082B1032AEAD106
:102B24002707E8D4BDF80F20002AE4D1052B02D0F2
:102B340026077FF466AF204605F0C4F942E7052B6B
:102B440002D023077FF45DAF204605F0D9F931495F
:102B54000880B3E72007CED4BDF80F20002ACAD1DD
:102B6400052B02D021077FF44CAF204605F0E8F98D
:102B7400204605F07BFD25E7254B1B78002B3FF411
:102B84002FAE254940F24B4001F07CFB28E64FF084
:102B94008043D3F83834DA070AD5022000E61C4B08
:102BA4001B78012B04D81C4940F2654001F06AFBF4
:102BB4000120F5E5CB78032B3FF419AE8B785B0647
:102BC40004D0154940F2744001F05CFB134E3368A5
:102BD400E3B1002232607168E8789847044600281F
:102BE4007FF4E8AE336823B1AB78002B7FF4F8AD03
:102BF400F2E60B4B1B68082B7FF4F2AD094B1B6804
:102C0400002B3FF4EDAD05F023FAF0E50E24D1E6F8
:102C140098090020C4090020EEBA0000B809002079
:102C2400300100103401001008B140230360014852
:102C3400704700BFC40900200068704738B50D46CE
:102C4400044620B906494FF4887001F01BFB237A2F
:102C5400AB4283BF093405EB45056019002038BD3C
:102C640044BB000038B50D46044620B9064940F27D
:102C7400431001F007FB6378AB4283BFA07840198F
:102C84000019002038BD00BF44BB000008B5002176
:102C9400FFF7D4FF0021FFF7E5FF007808BD08B572
:102CA4000021FFF7CBFF0121FFF7DCFF007808BD0F
:102CB4002DE9F843C24E99460B7A33700F4690467D
:102CC400054620B9BF4940F6D60001F0DBFA296871
:102CD40040F6E803994200F0FA802DD840F6E30369
:102CE400994200F0A58013D840F6DD0399427AD0CA
:102CF40040F6DE03994200F08580D1B9B24B1970D9
:102D0400B14B1A7833789A4263D340F6021366E0E3
:102D140040F6E503994200F0AB80C0F0988040F69D
:102D2400E603994200F0B38040F6E703994200F0CD
:102D3400BE800020286054E040F6F903994200F078
:102D4400018129D840F6F403994200F0D78040F677
:102D5400F503994200F0E18040F6E9039942E8D195
:102D64000021B8F1000F02D02B7908F80130974BFD
:102D74001B685A78964B1A70964B002201311A70D0
:102D8400944B1A78924B1B789A42C0F0B0808E4ACA
:102D9400137801331370B3E740F6FB03994200F054
:102DA400EF80C0F0DE8040F6FC03994200F0F7802B
:102DB40040F6FD039942BCD10021B8F1000F02D0C6
:102DC4002B7908F80130834A1378013301311370E9
:102DD400D6E7092389452B7106D840F6DD032B601D
:102DE4000120BDE8F8830021B8F1000F02D02B794F
:102DF40008F801300131042349452B7103D340F60F
:102E0400DE03ECE70021B8F1000F02D02B7908F8BB
:102E140001306D4B4C1C38461978FFF70FFF6B4B94
:102E24004C45186003782B7103D340F6E303D6E7CF
:102E34000024B8F1000F02D02B7908F80430611C8B
:102E4400002349452B7103D340F6E403C7E700216F
:102E5400B8F1000F02D02B7908F801305B4B1B68E6
:102E640001315B782B71494503D340F6E503B6E79E
:102E74000021B8F1000F02D02B7908F8013001319C
:102E8400082349452B7103D340F6E603A7E7002145
:102E9400B8F1000F02D02B7908F80130013197F80E
:102EA40028302B71494503D340F6E70397E7002107
:102EB400B8F1000F02D02B7908F80130013197F8EE
:102EC40029302B71494503D340F6E80387E70021F5
:102ED400B8F1000F02D02B7908F80130013100233A
:102EE40049452B71FFF43DAF40F6E90377E707232B
:102EF40089452B7103D840F6F40370E70021B8F13B
:102F0400000F02D02B7908F801300131052349451F
:102F14002B7103D340F6F50361E70021B8F1000FEC
:102F240002D02B7908F801302A4B4C1C1978274B16
:102F34001868FFF797FE4C4503782B7103D340F6CE
:102F4400F9034CE70024B8F1000F02D02B7908F8FC
:102F54000430611C022349452B7103D340F6FA0364
:102F64003DE70021B8F1000F02D02B7908F80130B9
:102F74000131402349452B7103D340F6FB032EE76F
:102F84000021B8F1000F02D02B7908F8013001318B
:102F9400002349452B7103D340F6FC031FE70021AE
:102FA400B8F1000F02D02B7908F801300131002369
:102FB40049452B71FFF401AF40F6FD030FE700BF55
:102FC400060A0020A4BB0000050A0020080A00200D
:102FD400040A0020070A002010B5044618B906495F
:102FE4008D2001F04FF923681BB903498E2001F0AD
:102FF40049F920680C3010BDA4BB000003681B69AC
:1030040070B504460D46164623B906494FF4A3701D
:1030140001F038F923683246294620461B69BDE889
:1030240070401847F9BB000003685B6910B504469B
:1030340023B905494FF4AA7001F024F92368204606
:103044005B69BDE810401847F9BB000038B5054678
:10305400FFF7C2FF0446002001F02AF894F831205B
:1030640094F832309A4204D30C4940F2111001F022
:1030740009F994F83120AB699A4204D307494FF413
:10308400897001F0FFF894F83130013384F831305D
:103094000020BDE8384001F01BB800BFA4BB00000D
:1030A40038B50546FFF798FF0446002001F000F804
:1030B40094F8313023B9134940F2451001F0E2F895
:1030C40094F8323023B90F494FF4A37001F0DAF8C1
:1030D40094F83130013B84F8313094F83230013BBC
:1030E40084F8323094F83030A9690133B3FBF1F23B
:1030F40001FB123384F830300020BDE8384000F082
:10310400E7BF00BFA4BB00000149812001F0BAB8A9
:10311400A4BB00002DE9FF41884617461E4604461D
:1031240008B9FFF7F1FF2046FFF756FF0546204692
:10313400FFF7ACFD002301A9CDE901870393FEF756
:10314400C9FF00B92E7004B0BDE8F0817FB50E460A
:10315400054608B9FFF7D8FF2846FFF73DFF0446A8
:103164002846FFF793FDE36CA26B84F82C6093422E
:1031740038BF13461A0A84F8283084F829201A0C18
:103184001B0E84F82B3004F1200384F82A200193C9
:103194000D22002301A9CDE90223FEF79BFF08B904
:1031A4000623237004B070BD7FB5044608B9FFF749
:1031B400ABFF2046FFF710FF05462046FFF76FFDE3
:1031C4006C1C06461F220021204607F0D1FD1F2259
:1031D400002301A930460194CDE90223FEF77AFFCA
:1031E40008B902232B7004B070BDF8B50F4604462D
:1031F40008B9FFF789FF2046FFF7EEFE0646204692
:10320400FFF744FD05462046FFF749FD04462846DE
:1032140004F058FE204604F055FE284605F010F848
:10322400204605F00DF83770F8BD38B585680446BA
:103234000DB9FFF769FF2846FFF7CEFE6368026DFC
:103244005968436C0A440265826C4B43934294BFB1
:10325400D21A00228264C26C0021934294BFD31A12
:103264000B46C36480F8541038BD10B5044608B941
:10327400FFF74AFF2046FFF7AFFE0930FFF7DCFCFB
:1032840028B920460121BDE81040FFF75FBF204662
:103294000721FFF7AAFF002010BD70B50546FFF710
:1032A4009BFE0646002000F003FF2846FFF794FE2D
:1032B40090F831402CB1D5E9043296F8304002FB45
:1032C4000434002000F004FF204670BD2DE9FF41C6
:1032D400074608B9FFF718FF3846FFF77DFE90F858
:1032E4005430044623B10025284604B0BDE8F081DB
:1032F40090F85530002B68D1836C002B52D038469F
:10330400FFF76AFE90F83130002BECD0A27BFB690A
:10331400A66C53F822803846FFF75EFE7D69436C45
:10332400AE4228BF2E46751E38461D44B5FBF3F544
:10333400FFF7B3FF064620B925494FF47D7000F02E
:10334400A1FF236D0396CDE90135012384F85430A0
:10335400D8F80030DB6823B91E494FF4977000F0A9
:1033640091FFD8F800305B6923B91A4940F22F1055
:1033740000F088FFD8F80030019D5B69404698470B
:1033840003689D420CD2D8F8003001A9DB6840469E
:10339400984705460028A7D0002384F85430A3E7B3
:1033A4000725F9E70378052B9DD1C36C6BB990F819
:1033B4002C103846FFF7CAFE0546002894D004496D
:1033C40040F20C4000F05EFF8EE706258CE700BF5C
:1033D400A4BB0000F9BB000070B50546FFF7FCFD77
:1033E4000646002000F064FE2846FFF7F5FDA969B3
:1033F40090F832308B4215D296F8323096F830403D
:10340400E218B2FBF1F401FB1424D5E90421E4B27F
:10341400013301FB042486F83230002000F058FE0A
:10342400204670BD0024F8E72DE9FF41044608B9A1
:10343400FFF76AFE2046FFF7CFFD90F83C300546C3
:103444001BB1002004B0BDE8F081436B002BF8D021
:103454002046FFF7C1FDA36990F832209A42F0D2CA
:103464002046FFF7B9FF6B6B66699E4228BF1E4674
:10347400074620B90E494FF4747000F003FF01238E
:1034840085F83C302046FFF7A7FD80462046FFF72D
:1034940006FC002401A9CDE901760394FEF71AFE87
:1034A40018B9052388F80030CCE785F83C40C9E713
:1034B400A4BB0000F8B5054608B9FFF725FE284669
:1034C400FFF78AFD90F83C30044613B100252846E6
:1034D400F8BD90F83D30002B3AD1436B2BB328460E
:1034E400FFF77AFD90F83130002BEFD02846FFF734
:1034F400D4FE6A69666B964228BF1646074620B911
:10350400144940F27E3000F0BDFE012384F83C30C3
:103514002846042332463946FFF7FCFD05460028B9
:10352400D5D0002384F83C30D1E70378042BCDD1E7
:10353400836B6BB990F82C102846FFF707FE0546FD
:103544000028C4D0034940F28F3000F09BFEBEE750
:103554000625BCE7A4BB000038B5D36C0546144669
:1035640023B90121BDE83840FFF7F0BD936C23B9BE
:103574002846BDE83840FFF778BE92F90D30002B9D
:10358400F6DB0846FFF728FD0023038680F8323077
:10359400D4E912239A4288BFA364A363A36C636330
:1035A40088BF02224FF0000388BF84F82C2084F8DF
:1035B4003C3084F854302846FFF736FF044610B1F7
:1035C4002846FFF752FE204638BD00002DE9FF4192
:1035D400074608B9FFF798FD3846FFF7FDFC90F859
:1035E400543006461BB1002004B0BDE8F08190F8C9
:1035F4005530002B55D1836C002BF4D03846FFF79F
:10360400EBFCBB6990F832209A42ECD2B27BFB69A6
:10361400B56C53F822803846FFF7DEFC7C69436CB6
:10362400A54228BF25466C1E38461C44B4FBF3F45F
:10363400FFF7D2FE054620B91B4940F2AE3000F038
:1036440021FE336D0395CDE90134012386F854300E
:10365400D8F800309B6823B914494FF4897000F0FE
:1036640011FED8F800305B6923B9104940F21310F9
:1036740000F008FED8F80030019C5B69404698478A
:1036840003689C420BD2D8F8003001A99B684046DD
:1036940098470028A8D0002386F85430A4E70720D0
:1036A400F9E70620A0E700BFA4BB0000F9BB0000B7
:1036B4000B78022B70B50C4602D0032B29D070BDB9
:1036C400002000F0F5FCA5680DB9FFF71DFD2846A4
:1036D400FFF782FC06462846FFF7B8FC637853B927
:1036E4002046FFF7A2FD2846FFF7E4FE38B128463E
:1036F400FFF7BBFD08E0012386F83D30F3E72846D9
:10370400FFF764FF0028F2D10020BDE8704000F00C
:10371400DFBC002000F0CCFCA5680DB9FFF7F4FC79
:103724002846FFF7BDFC63785BB92046FFF77DFDB3
:103734002846FFF779FE0028D9D12846FFF7C6FDB1
:10374400E0E72846FFF791FDF2E738B5D36C05466C
:10375400144623B90121BDE83840FFF7F7BC936C48
:1037640023B92846BDE83840FFF77FBD92F90D30F4
:10377400002BF6DA0846FFF72FFC0023038680F8B7
:103784003230D4E912239A4288BFA364A363A36CA2
:10379400636388BF02224FF0000388BF84F82C20A3
:1037A40084F83C3084F854302846FFF70FFF044671
:1037B40010B12846FFF759FD204638BD2DE9F04FDA
:1037C4000E4685B0044628BBAE4940F63F0000F0E3
:1037D40059FD2EB9AB494FF4046000F053FD0CB908
:1037E400FFF792FC2046FFF7F7FB337807460E2BD2
:1037F40032D8DFE813F01C00120071031C00310002
:103804002100E200310031003100310073031C005B
:103814008E03CB030029E5D1DCE70D22002107F05C
:10382400A7FA0422984907F1200007F078FA002546
:10383400284605B0BDE8F08F24B992494FF448708A
:1038440000F020FD7278D1094FEA52134ED013F0E4
:10385400030303D0012B26D00625E9E702F01F025B
:10386400012AF9D1B578062DF6D103A80293FFF702
:10387400DBF902AB009307460346F2783179204620
:10388400FEF7FAF90528D3D0029B3F2B04D97D49D2
:1038940040F25F2000F0F6FC029A3946701CFEF7F5
:1038A40011FF0546C4E70CB9FFF72EFCB378FE2BD5
:1038B400D2D1B6F80330002BCED1B6F80730012BA5
:1038C400CAD103A8FFF7B0F9236A054623B96D49A5
:1038D40040F2CD2000F0D6FC236A013B2B80204629
:1038E400FFF762FC01222946B018D8E74BB3012B3D
:1038F400B2D10CB9FFF708FC2046FFF76DFBB37893
:10390400FF2B0746A8D1B6F80330002BA4D1B6F894
:103914000750002DA0D12046FFF7B8F98046204675
:10392400FFF7BDF90646404604F08AFC304604F031
:1039340087FC3B78022B3FF47AAF2046FFF734FC38
:1039440076E70CB9FFF7E0FB2046FFF745FB7578F7
:1039540005F01F05022D80467FF47EAFB778012F56
:103964007FF47AAFB6F80330002B7FF475AF037899
:10397400082B00F037837679304604F0E1FA3046BC
:1039840004F074FE33067FF552AF98F80030072B2D
:103994000CD0092B7FF44BAF2046FFF780F904F0DD
:1039A40065FE29462046FFF7D1FB7AE72046FFF75C
:1039B40076F904F05BFE0121F4E796F90230002B5E
:1039C40064DA0CB9FFF7A0FB2046FFF705FB03A957
:1039D4000546B07804F0C6F808B100230393F378E1
:1039E400002B7FF424AF2B78033B042B47D801A290
:1039F40052F823F00D3A0000193A00003338000061
:103A0400333800005D380000EB6C039A9B1AEB64BA
:103A14000021C7E7039E0CB9FFF776FB2046FFF7AA
:103A2400DBFA6269436B934228BF13469E42054604
:103A340004D0144940F24B7000F024FC6A6B00235C
:103A4400964285F83C3098BF931B6B63AB6B9E42E8
:103A540094BF9B1B0023AB632046FFF721FB20464A
:103A6400FFF728FD054630B92046FFF7AFFD0546B0
:103A740000283FF4DCAE2046FFF7F7FBD8E6032529
:103A8400D6E600BFA4BB0000A0BB00000CB9FFF742
:103A94003BFB2046FFF7A0FA02A90546B07804F0E4
:103AA40061F808B100230293F278012A0CD12B7833
:103AB400052B3FF4BCAE062B02D0012B7FF4B7AE2E
:103AC4002046FFF771FBECE6032A02D101232B7099
:103AD400ADE6022A2B7808D1052B04D10921204612
:103AE400FFF783FBA3E60821F9E7023B052B00F26D
:103AF400E18101A252F823F0153B0000B93E000019
:103B0400B93E00004D3E0000333800005D3800002F
:103B14000CB9FFF7F9FA2046FFF75EFA05462822AA
:103B24000021303005F1240707F022F90021042296
:103B3400384607F01DF92046FFF7B1F803A904F051
:103B440011F808B100230393039B1F2BCBD104224C
:103B5400BB49681C07F056F806460028C3D1042266
:103B6400691D384607F0DBF8A97B85F82C6005F160
:103B7400090285F840101046FFF75EF8236AE864EE
:103B8400994203D32046FFF770FB8AE62B7C1A2B5D
:103B940000F00E8138D8082B00F0A5800FD8032B35
:103BA4007FD0042BEED0002B3BD11046FFF744F816
:103BB4000028E7D1EB7B062B3FF42AAFE2E7122B78
:103BC40000F0AF80152B3FF423AF0A2B29D1EB7BF8
:103BD400052BD7D9E36953F82100FFF725FAAA7C0E
:103BE400EB7C4168287D696443EA02236A7C120401
:103BF40002F4F812134341432B65A9642A46214673
:103C04002046FFF7A9FC4CE6252B00F0E6800ED8F1
:103C14001D2B3FF4FDAE1E2B3FF4FAAE1B2B3FF4DD
:103C2400F7AE1046FFF708F80028ABD1C3E62A2BFD
:103C340000F0F08016D8282BF3D1EB7B092BA1D907
:103C4400E36953F82100FFF7EFF9E97D2A7E436821
:103C54006B6442EA0122D5F81210534309BA29656C
:103C6400AB6458E0552B3FF4D3AE5A2BD9D1EB7B40
:103C7400092B87D91046FEF7DFFF0428074681D8B1
:103C840005F1580608220021304607F071F8062392
:103C940085F85930002385F858303A4603233146D5
:103CA4001DE0EB7B052B7FF66DAF1046FEF7C4FFDE
:103CB400122806463FF666AF00283FF4A9AE05F188
:103CC400580712220021384607F052F8F02385F8ED
:103CD40058300B2385F85F3032460323394620469B
:103CE400FFF718FADDE5EB7B052B7FF64BAFE369B5
:103CF40053F82100FFF798F9AA7CEB7C4168287DF2
:103D0400696443EA02236A7C120402F4F81213433E
:103D140041432B65A9642A4621462046FFF715FD39
:103D2400BFE5AB7C002B7FF42DAF1046FEF784FF7C
:103D3400242807463FF626AF00283FF469AE414BDE
:103D4400AB65202385F85C30E36903AA53F82100AE
:103D5400002301210393FFF751F9039E05F160004D
:103D640005F1680905F1780808229EB1316806F06A
:103D7400A9FF039B10225968484606F0A3FF039B42
:103D840004229968404606F09DFF03233A4605F154
:103D94005801A4E7314606F0EBFF314610224846AD
:103DA40006F0E6FF04223146404606F0E1FFECE768
:103DB400EB7B052B7FF6E6AE1046FEF73DFF0428AD
:103DC40002463FF6DFAE032385F8583085F8596084
:103DD40085F85A6085F85B60D9E7EB7B092B7FF6A1
:103DE400D1AE1046FEF728FF082806463FF6CAAEB5
:103DF40000283FF40DAEE36953F82100FFF714F9EE
:103E04000368013B1BBAAB6543681BBAEB653246DA
:103E14000323BCE7EB7B092B7FF6B4AEE36953F8CD
:103E24002100FFF701F9E97D2A7E43686B6442EAC9
:103E34000122D5F81210534309BA2965AB64DDE6B3
:103E44009CBB000000800612002000F031F9029DA6
:103E54000CB9FFF759F92046FFF7BEF86369426BC6
:103E6400934228BF13469D421CBF012380F855305E
:103E740095424FF0000380F83C3098BF531B4363D6
:103E8400836B9D4294BF5B1B002383632046FFF733
:103E9400DDF82046FFF7C8FA054620B92046FFF7AB
:103EA40015FA054610B12046FFF7DFF9002000F0AF
:103EB4000FF9BDE44C4940F62D0000F0E3F9CBE4E2
:103EC400E369002253F825001146FFF797F80135FE
:103ED400236AAB42F4D8AAE40025F9E700210320C1
:103EE40000F0B2F8054600283FF4B6AC0378192B6D
:103EF4004FEA53067FF6B0AC0124B442BFF497AC4A
:103F040035F8140006F074FE00283FF4A5AC013423
:103F1400F3E7236A102B04D9334940F6980000F0E4
:103F2400B1F90026DFF8C480DFF8C490DFF8B8A048
:103F34003546236AB3427FF67BACE36953F826B077
:103F4400DBF800301B681BB94146F02000F09AF9F9
:103F5400DBF8003022461B68494658469847054618
:103F640090B9B7F87C200123B3401343A7F87C3001
:103F74005846FFF759F8636942689A4204D9514692
:103F840040F6A50000F07EF90136D2E7236A102B33
:103F940004D9154940F6AE0000F074F90026DFF8A4
:103FA4004C8035464FF00109236AB3427FF640AC9A
:103FB400E36953F826502B685B681BB94146FD2022
:103FC40000F060F92B6828465B689847054638B9C5
:103FD400B7F87C2009FA06F322EA0303A7F87C3039
:103FE4000136E1E70F2523E4A4BB0000F9BB000080
:103FF400B5360000F8B5124B53F820502B7813B99E
:10400400AE1C3046F8BD0020FEF70EFE0D4F0646EE
:10401400013D002315F8012F5C1C2AB96400E4B2A9
:1040240044F440743480ECE71E2B03D93946E6206F
:1040340000F028F9E3B22A7826F81320EAE700BF53
:10404400F0BC00009CBC000008B9FFF7D3BF0528F2
:1040540007D8054A105C20B1044B53F82030002BDC
:10406400F3D10020704700BF08BD0000F0BC000081
:1040740072B6024A13680133136070470C0A0020B9
:10408400034A1368013B136003B962B6704700BF6B
:104094000C0A0020EFF30583C3F308032BB9EFF3F5
:1040A4001480C04300F001007047012070470000F5
:1040B40008B5FFF7EFFF012803D00449432000F0BF
:1040C400E1F8BDE80840FFF7D3BF00BF0EBD000014
:1040D40008B5FFF7DFFF012803D00449512000F0A1
:1040E400D1F8BDE80840FFF7CBBF00BF0EBD00000C
:1040F400EFF30583C3F308038BB1103B5AB2002AD4
:10410400ADBF02F1604303F00F03064A03F56143B8
:10411400B4BFD05C93F800034009C0B270470F20CD
:10412400704700BF14ED00E01EF0040F1CBFEFF356
:1041340009800AE0EFF308800549064A884201D85D
:10414400904202D88D464FF00000034B1847000000
:104154000000042000E0032085410000BFF34F8FDE
:104164000549064BCA6802F4E0621343CB60BFF30F
:104174004F8F00BFFDE700BF00ED00E00400FA052B
:104184002DE9F3470546FCF71DFDFCF72FFB00283E
:10419400FBD12F4B2F4C9F6A2F4BE41AE4082404C5
:1041A40044F00104002D4ED0AA692C492046FCF7A6
:1041B400A9FCEB680193AB6800932949D5E9002376
:1041C4002046FCF7BEFCEB6900932649D5E904239D
:1041D4002046FCF7AAFC1E4BDB6A980703D522494C
:1041E4002046FCF78BFCDFF89490DFF894A00026BF
:1041F4004FF0010808FA06F33B4206D059F826208E
:104204001AB151462046FCF77DFC01361A2EF1D135
:10421400390605D50E4B15495A6B2046FCF772FC3E
:104224003A0405D50A4B12499A6B2046FCF76AFCFE
:10423400104B1B68DB0700D500BE2846FFF78EFF36
:1042440002B0BDE8F0870C492046FCF757FCC2E7F2
:1042540000ED00E0D8B5000080B500005EBD0000B0
:1042640073BD0000A8BD000003BE000052BE0000E4
:1042740072BE0000F0ED00E0D0BD00008CBE000076
:1042840047BE000007B5ADF8000001916A46002161
:1042940044F20200FDF76AF803B05DF804FB10B5C0
:1042A40061B1B2FBF3F403FB1424A4B244B9C0E932
:1042B400001484608281C381204610BD0E20FCE777
:1042C4000920FAE737B550E8013F9DB2C489254477
:1042D4008489A54228BF2D1B0489A54202BFBFF3D0
:1042E4002F8F002207E0C5EA030540E80154002CA3
:1042F400E9D14FF001028DF803200193019B9DF851
:1043040003200B6002F0FF0322B10B8800681844FD
:1043140003B030BD1846FBE70A884B889A4209D19E
:1043240050E8012FC2EA024240E80123002BF7D1F2
:10433400012070470020704737B550E8023F1FFA4C
:10434400A3F5C488A54202BFBFF32F8F00220DE05E
:10435400C48925448489A54228BF2D1BC3EA054589
:1043640040E80254002CE8D14FF001028DF80320FC
:104374000193019B9DF803200B6002F0FF0322B11F
:104384004B880068184403B030BD1846FBE70A8820
:104394004B889A4209D150E8022FC2EA224240E8EF
:1043A4000223002BF7D1012070470020704750E80A
:1043B400002F0B4640E8003C9CF0000FF7D110465C
:1043C400704750E8003F43EA010240E8002C9CF0AB
:1043D400000FF6D11046704750E8002F02EA01039F
:1043E40040E8003C9CF0000FF6D11046704750E8BE
:1043F400003F03EB010240E8002C9CF0000FF6D1D3
:104404001046704750E8003FA3EB010240E8002C3F
:104414009CF0000FF6D11046704750E8003F8B42E5
:104424002CBF5A1A1A4640E8002C9CF0000FF4D115
:10443400104670470121FFF7C4BF0021FFF7CCBF2E
:1044440010B50446002834D003681BB91A49FF206C
:10445400FFF718FF636823B917494FF48070FFF71B
:1044640011FFA36823B9144940F20110FFF70AFFB2
:10447400E36823B910494FF48170FFF703FF238ADF
:1044840023B90D4940F20310FFF7FCFED4E90123E0
:1044940021689B1ADBB20A60013BDBB2FF2B226866
:1044A40002D10020107110BD1168481C10600B70FF
:1044B400F2E70E20F7E700BFB4C3000038B50446A6
:1044C40020B911494FF49270FFF7DCFE0020FFF78A
:1044D400EFFD226863681168994213D9481E106081
:1044E40011F8015CE368218A01FB0535A3681179A1
:1044F4001B1ADBB2994200D213710020FFF7E8FDCA
:10450400284638BD0025F8E7B4C3000038B50C468A
:10451400054620B90E4940F24710FFF7B3FE24B90F
:104524000B494FF4A470FFF7ADFE0020FFF7C0FD68
:104534002A681368591C1160EA68A41A2A8AB4FB11
:10454400F2F41C700020BDE83840FFF7C1BD00BF85
:10455400B4C3000019B1012905D00620704702B187
:1045640011700020704712B104301060F9E7072081
:104574007047000010B5044618B90349FB20FFF743
:1045840081FEA06910BD00BFFFC3000030B50C461A
:1045940085B0054618B91149AC20FFF773FE1CB964
:1045A4000E49AD20FFF76EFED4E90031AA690B4431
:1045B40011688B420DD893686BB10321D268ADF8B2
:1045C400041028460294039201A99847002005B0DC
:1045D40030BD1020FBE71846F9E700BFFFC3000019
:1045E4007FB50D461646044618B90B494520FFF71A
:1045F40049FEA36922695A6062691A60C3E90256D6
:104604003DB1002301A92046ADF80430CDE90236BE
:10461400A847002004B070BDFFC300007FB50C465E
:10462400064618B913497F20FFF72CFE1CB911491F
:104634008020FFF727FEB569D4E9003229681344C6
:104644008B4213D86B68A0685A43002106F090FB94
:10465400AB686BB10222ADF80420EA6802943046DC
:10466400039201A99847002004B070BD1020FBE715
:104674001846F9E7FFC3000030B5054685B018B900
:104684000C496420FFF7FEFDAC69A3684BB101221D
:10469400ADF8042000220292E268039201A92846A0
:1046A400984710220021204606F062FB002005B046
:1046B40030BD00BFFFC3000010B5044620B9044953
:1046C40040F22B30FFF7DEFDE06A043010BD00BF7E
:1046D4007AC400007FB5044620B9144940F2AB10F7
:1046E400FFF7D0FD124E3268A2421DD1E56A2B7845
:1046F400DBB2012B18D1EA6842B1ADF804300023D3
:1047040002932B69039301A92046904700242C703F
:1047140001F0F4FD41F238022146284606F028FB58
:104724003460204604B070BD1120FBE77AC4000059
:10473400100A00202DE9F043884687B091460546CB
:1047440020B9414940F22B10FFF79CFD2B6913F06F
:10475400FF0F04D00624204607B0BDE8F0834FF4D1
:104764008052B2FBF3F25343B3F5805FF2D1374F7B
:104774003B68002B65D12A463549EE6A05F11800DD
:1047840001F070FC04460028E5D1324B1868019012
:104794009B88ADF808302246214601A801F002FDAD
:1047A40004460028D7D199230246014601A88DF872
:1047B400043001F0F7FC04460028CCD1ADF8000029
:1047C4008DF8020040F29F4301466A4601A8ADF805
:1047D400043001F0E7FC04460028BCD1684600F030
:1047E40017FE0028B6D08368B3F5805FB2D12B6979
:1047F4004268B2FBF3F19342ACD84FF48054B4FB5B
:10480400F3F2B1FBF2F402FB1414002CA2D1C6E9BA
:104814000113012333704FF0FF3333632B7D3D606D
:1048240003F00103C6E9038986F82D30B8F1000FBF
:1048340091D003A92846ADF80C40CDE90449C047FE
:1048440089E7112487E700BF7AC40000100A00201A
:10485400B14A000074C40000F8B50D46064620B9FC
:10486400224940F2D710FFF70DFD25B91F494FF437
:10487400EC70FFF707FDD5E90032F46A134462686F
:1048840093422ED81A4B1B68B3422CD12778FFB21F
:10489400012F28D195E8070004F1200383E80700DD
:1048A40095E8070004F1140383E807000223D4E920
:1048B40008212370A368A06A5A43594301F082FD7A
:1048C40008B12770F8BDE368C4E90900002BF9D1E9
:1048D4002378012BF6D0F26A1378012BF2D030BF83
:1048E400FAE71020EEE71120ECE700BF7AC40000DD
:1048F400100A0020026B90F82E3010B412037BB91A
:10490400436B93FAA3F30524816800F8384BB3FA98
:1049140083F34B431A4418445DF8044B01F018BD6B
:1049240004230370002380F82E30114618465DF8E6
:10493400044B01F081BD000070B50E4614460546D7
:1049440020B9164940F2F120FFF79CFC1EB1012E5C
:104954001AD0062070BDED6A2E78F6B2012E18D159
:1049640095F82D300BB16B6B1BB900207CB1207016
:10497400F0E72846FFF7BEFF0028EBD104B126700C
:10498400012385F82C30E5E72CB10435256000209F
:10499400E0E71120DEE70720DCE700BF7AC400006F
:1049A4002DE9FF470A68C66AD1F808A0B5684FF434
:1049B4008054B4FBF5F4B2FBF4F904FB19294A68FA
:1049C400A4EB0904944228BF144609FB05F9654386
:1049D400AB0780460F4604D0334940F22120FFF74D
:1049E40051FCD8F82CC00CEB0902AB083432AAF104
:1049F400040A00254FF0010E52F8041F5AF8040F60
:104A040081420ED0DCF834000131DCF80810B9FB27
:104A1400F1F10EFA01F141EA000118BF0125CCF8C9
:104A24003410DAF800101160013B09F10409E3D1F4
:104A340015B1012386F82E303B687D68B2682344A3
:104A44003B60BB682D1B04FB023496F82E307D605E
:104A5400BC604BB14FF48053B3FBF2F2012393409B
:104A6400726B013B13437363736B13B196F82D3070
:104A74009BB1F3688BB185B90322ADF8042006F12C
:104A840014020292326903920122327001A9404653
:104A94009847284604B0BDE8F087D8F82C00FFF703
:104AA40029FF0546F5E700BF7AC400002DE9FF475A
:104AB400624B1B688B420E4647D1CC6A2378023B7B
:104AC400032B00F2B680DFE803F002556C6C94F817
:104AD4002D305BB3D4F814E0A568D4F830C005FBDE
:104AE4000EF94FEA1939E14520D8A7690EEB070AF8
:104AF4000AFB05F84FEA1838E04517D3E1454FF4AF
:104B0400805204F13801B2FBF5F3E06920D1BEFB19
:104B1400F3F203FB12EEA3EB0E039F4228BF1F46E2
:104B240005FB07F20EFB051106F0F9F801232370CB
:104B3400E36853B10222ADF8042004F11402029296
:104B44002269039201A93046984704B0BDE8F08772
:104B540003FB0CF9A9EB0E0EE04505FB0E00E3D1B7
:104B6400BAFBF3F203FB12A39F4228BF1F4605FBC7
:104B740007F2D9E7226AA3685343226BB2EB133FCF
:104B840003D02F49CF20FFF77DFB04F120013046ED
:104B9400FFF706FF0028D8D02949D320FFF772FB7E
:104BA400D3E7616B91FAA1F32278052A05D1B3FA10
:104BB40083F2012393404B406363606B48BB636A99
:104BC4008BB1236AA2685A43130B2046236322F451
:104BD4007F62032300F8383B22F00F024FF4805128
:104BE40001F0F0FBB1E701232370E3686BB194F8A3
:104BF4002C2052B90322ADF8042004F114020292CD
:104C04002269039201A930469847002384F82C3086
:104C14009BE790FAA0F00523A168226B04F8383BC7
:104C2400B0FA80F0484300EB0232204401F090FBDC
:104C34008BE7034940F21910B0E700BF100A0020C7
:104C44007AC40000F8B50D46064620B92C4940F256
:104C54009620FFF717FB25B9294940F29720FFF763
:104C640011FBD5E90032F46A13446268934242D8D6
:104C7400244B1B68B34240D12378012B3DD195E8E6
:104C8400070004F1200787E8070095E8070004F10E
:104C9400140383E80700A268236A216B5A43130BA9
:104CA4008B4207D139463046FFF77AFEB8B101236B
:104CB4002370F8BD94F82D1019B1F06AFFF71AFEAD
:104CC400F4E72046236322F47F62032300F8383B91
:104CD40022F00F024FF4805101F074FBE6E7E36821
:104CE400002BE6D12378012BE3D0F26A1378012B51
:104CF400DFD030BFFAE71020DBE71120D9E700BF8F
:104D04007AC40000100A002019B1012905D0062038
:104D1400704702B111700020704712B10430106066
:104D2400F9E707207047000010B5044618B9034995
:104D3400E320FFF7A7FAE06910BD00BFF0C400004C
:104D44007FB50D461646044618B90C494220FFF7B4
:104D540099FAE3692269A1695A60B1FBF2F1C3E9E6
:104D6400025619603DB1002301A92046ADF8043074
:104D7400CDE90236A847002004B070BDF0C400009D
:104D84002DE9FF410C461746054618B91A497A2001
:104D9400FFF778FA1CB918497B20FFF773FAEE691C
:104DA400D4E900033268C118914220D86969726855
:104DB400022F02FB0010A16808BF844602FB03F225
:104DC40004BF0846614605F0AAFFB3684FF0000827
:104DD4007BB1F2688DF8047028468DF80580029442
:104DE400039201A99847404604B0BDE8F081102021
:104DF400FAE71846F8E700BFF0C400000322FFF703
:104E0400BFBF0222FFF7BCBF30B5054685B018B955
:104E14000C496020FFF736FAEC69A3684BB1012214
:104E2400ADF8042000220292E268039201A9284608
:104E3400984710220021204605F09AFF002005B073
:104E440030BD00BFF0C4000010B5044618B90649CF
:104E54003120FFF717FAA2682AB163692168206933
:104E640098470023A36010BD64C500000EB433B599
:104E7400059D044618B911494220FFF703FA6369F6
:104E84001BB90E494320FFF7FDF923681BB90B49F1
:104E94004420FFF7F7F963681BB908494520FFF779
:104EA400F1F935B106AB01AA29462046019300F079
:104EB40077F802B0BDE8304003B0704764C5000025
:104EC4000A2938B504460D4602D10D21FFF7F8FF33
:104ED400A3682268591CA160D554D4E901329A42CE
:104EE40004D32046BDE83840FFF7AEBF38BD00000C
:104EF4002DE9F84F9946DDE90A431746824688466C
:104F04000A460126BA420FD24E4538BF4E4613F028
:104F1400010B01D164B900240125B9F1010F1AD99B
:104F240009F1FF397D43F8E7B2FBF7F20136E9E70F
:104F34009B070ED5B9F1000F0CBF30252025A642E2
:104F4400EAD2013C29465046FFF7BAFF002CF6D1BD
:104F5400E1E72025F3E7B8FBF5F39F42E2D9DFF858
:104F64003C90B8FBF5F3504619F8031005FB138881
:104F7400FFF7A6FFB5FBF7F3BD4207D2BBF1000F65
:104F840002D00CB1A64203D3BDE8F88F1D46E8E772
:104F940020215046013CFFF793FFF2E7A5C500002E
:104FA4002DE9F74F88461746054620B9A8494FF41E
:104FB400A270FFF767F96B6923B9A5494FF4A37091
:104FC400FFF760F92B6823B9A14940F24710FFF7B6
:104FD40059F96B6823B99E494FF4A470FFF752F94D
:104FE400B8F1000F00F0308118F8011B49B92B7B90
:104FF400002B00F02981284603B0BDE8F04FFFF7ED
:1050040023BF252940F0C080002698F800302D2BBE
:10501400424608F1010823D0302B24D02B2B25D075
:1050240000242A2B02F1010123D13B681A1D1B68BD
:105034003A601C440A4613782E2B26D101324FF0D5
:105044000009104610F8011BA1F1300CBCF1090F46
:105054001DD80A2303FB0913A3F130090246F0E724
:1050640046F00106D1E746F00206CEE746F0040614
:10507400CBE711F8013CA3F130000928DBD80A2260
:1050840002FB0434303C0A46CBE74FF0000912F827
:10509400011B01F0FB0068289046F8D069290ED066
:1050A4004AD8582964D006D825296DD098F80030FC
:1050B400002B99D19BE7632962D06429F6D13A6821
:1050C400D2F800A0111D8AEAEA723960A2EBEA72F2
:1050D4004FF0010B092A5BDCCB4538BFCB462CB122
:1050E400BAF1000F01DB720700D5013CB30702D50A
:1050F400B9F1000F04D0F00702D4002C4ED10024E3
:10510400BAF1000F52DACAF1000A2D212846FFF73E
:10511400D7FE06F00302022A05D1B9F1000F02D12D
:10512400002C47D10024CDE900464B460A225146C3
:105134002846FFF7DDFEB9E773294CD014D870294F
:10514400B4D13B681A1D3A60302128461C68FFF729
:10515400B7FE78212846FFF7B3FE00220823CDE9E5
:10516400003221461022E3E775292BD078299DD1FE
:1051740039680A1D3A60CDE900464B46102228E002
:105184003B681A1D19783A602846FFF799FE8DE7A7
:105194000A230BF1010BB2FBF3F29BE7A345AFD259
:1051A40020212846013CFFF78BFEA6E77107B0D506
:1051B4002B21ABE7A345B6D230212846013CFFF7AB
:1051C4007FFEADE73968CDE900460A1D3A604B46DB
:1051D4000A220968ACE73B681A1D3A6016F001061A
:1051E400D3F800A020D1BAF1000F03D0504605F047
:1051F400F2FD0646B44200D9C4B90AF1FF3A1EE0F2
:1052040028460136FFF75CFE1AF806100029F7D18C
:10521400A642BFF44BAF002C3FF448AF20212846F0
:10522400013CFFF74DFEF3E70026EDE72021284679
:10523400013CFFF745FEDDE72846FFF741FE1AF87B
:10524400011F0029F8D131E703B0BDE8F08F00BF9A
:10525400B5C500002DE9F74F99469DF8303001930C
:1052640088461746054618B92249B620FFF70AF8BA
:10527400EA8895F805B00BFB02FBABF1040BCB45B8
:1052840003D81C49C420FEF7FDFF3E68B5F806A00C
:1052940006EB09025A4509F1040188BFABEB090684
:1052A400B1FBFAF43E600AFB141144B9AAEB0107FE
:1052B400B74228BF37462EB903B0BDE8F08F2D683A
:1052C400013CF2E7019A043108EB0403681872B157
:1052D40001463A461846F61B05F021FDB2453C440A
:1052E4002D6857464FF0000128BF3746E3E73A469A
:1052F4001946F0E7FDC50000FFF7A2B8F8B54679F6
:105304000146721E0546002393422D6803D30024F0
:10531400A64202D8F8BD0133F6E70F682846FFF726
:10532400F5F801343946F3E72DE9F843068ACD1C34
:105334000746FFF7C3F8043E35440446B5FBF6F5CB
:10534400F0B14FF48073EDB28380C680013D0760F5
:1053540081464FF00008A84512D23846FFF7AEF850
:10536400064648B163790133637108F10108C9F84D
:10537400000007608146EEE72046FFF7BFFF344692
:105384002046BDE8F88301210430FFF730B810B59A
:10539400012104460430FFF735F810F0FF0F04D163
:1053A4002046BDE81040FFF7A9BF10BD1FB5144645
:1053B40003920022009203AAFFF74CFF039BA3422F
:1053C40003D00349F620FEF75DFF04B010BD00BF13
:1053D400FDC500001FB5144603920122009203AAE2
:1053E400FFF738FF039BA34204D003494FF48070B6
:1053F400FEF748FF04B010BDFDC50000836800221D
:105404005A609A60C3E90422DA601A6070470000A7
:10541400014608B50322044805F0F4FB00280248BD
:1054240018BF002008BD00BF48C6000010B50D49D4
:10543400A1F58C72914201D800200FE08B1ADB1089
:1054440003EBD3735B1002EBC30452F83330834293
:1054540005D802D204F10802ECE7606810BD2146C9
:10546400E8E700BF84C7000008B5FFF7DFFF024B81
:10547400002808BF184608BD58C6000038B5074CB8
:10548400051E04F1080318BF1C4623682BB11A68D3
:1054940022605B6828469847F7E738BD1C0A00205D
:1054A40020B9054B01225A70FFF7E8BF012802D149
:1054B400014A9070F8E77047140A0020014B1878ED
:1054C400704700BF140A002038B5094C23786BB923
:1054D40008486360A3602361E36000F057F9054660
:1054E40000F068F901232370284638BD8525FBE7C1
:1054F400140A0020A554000038B51A4C2378054638
:105504001BB91949E920FEF7BDFEA37803F0FF009B
:10551400ABB115B16B68012098470020FEF7C8FDB8
:10552400E36800200133E360FEF7D2FDE368C3B90A
:105534000D4940F20510BDE83840FEF7A3BEFEF762
:10554400B7FD25B1226913463BB92A602561E3689A
:10555400002BE5D100F050F9E2E79D42F7D01B683B
:10556400F2E738BD140A002015CB000038B51B4CF7
:105574002378054623B91A494FF49370FEF782FE47
:10558400637803F0FF00ABB115B16B680020984756
:105594000020FEF78DFD6368002001336360FEF791
:1055A40097FD6368C3B90E494FF4A170BDE8384054
:1055B400FEF768BEFEF77CFD25B1A26813463BB931
:1055C4002A60A5606368002BE5D100F033F9E2E7B7
:1055D4009D42F7D01B68F2E738BD00BF140A0020D3
:1055E40015CB000038B50F4C237823B90E4940F28F
:1055F4004710FEF747FE636823B90B494FF4A470C4
:10560400FEF740FE0020FEF753FD6368013B636034
:10561400656815B900F02CF965700020BDE83840C4
:10562400FEF756BD140A002015CB000010B5074C38
:1056340023784BB9064B002808BF184600F0DEFB60
:1056440008B90123237010BD8520FCE7280A002037
:1056540065CB000008B500F00AFCBDE8084000F086
:105664000DBC10B50446FFF7F5FF204600F0F2FB31
:1056740000F0F6FB002010BD1FB503788DF8003054
:105684004368019383688DF80830C3680393054A1F
:10569400054B684653F8213052F82110984705B05D
:1056A4005DF804FB2C0A0020340A00201FB503789F
:1056B4008DF800304368019383688DF80830C3681F
:1056C4000393054A054B684653F8213052F82110DC
:1056D400984705B05DF804FB2C0A0020340A00202A
:1056E4002DE9F0411D4B077843F827201C4B164643
:1056F400012F0A6943F8272088B080460C4605D15B
:105704004B7F1BB917497620FEF7BCFDDFF860C05C
:10571400637F0CF807300FCC6D460FC594E80F007B
:1057240085E80F0098F8003004971CF803305BB14B
:10573400002E0D4A694608BF324608F1040001F004
:10574400A5FA08B0BDE8F081002E084A694608BFF2
:10575400324608F10C0001F039F8F2E7340A00206F
:105764002C0A002066CB00007D560000B1560000D4
:105774003C0A002050E8002F02EA010340E8003C04
:105784009CF0000FF6D110467047000010B5044697
:1057940018B90649A020FEF775FD054B187918B90C
:1057A40001221C609A8010BD8520FCE7AFCB00006D
:1057B400400A002008B50C4B1B791BB90B49B920D2
:1057C400FEF760FD0A4B1A68D2075FBFC02283F858
:1057D400002301221A604FF080420123C2F81835D9
:1057E400044A137008BD00BF400A0020AFCB00007C
:1057F40000E100E0480A00200B4B1B7907B51BB9F8
:105804000A49E620FEF73EFD094B00221A601B6898
:105814000193019B4FF080430222C3F80423012229
:105824009A6003B05DF804FB400A0020AFCB00008F
:10583400040100400B4B1B7907B51BB90A49FB2037
:10584400FEF720FD094B00221A601B680193019B9F
:105854004FF080430122C3F804231A6003B05DF8BB
:1058640004FB00BF400A0020AFCB00000001004051
:1058740010B50B4C227922B90A4940F20310FEF705
:1058840001FD094B01221A604FF08042D2F80C341A
:1058940003F00113B3F1011FF8D00023637110BDAD
:1058A400400A0020AFCB000004000040154B07B5B0
:1058B4001A687AB100221A601B680093009B4FF0AB
:1058C40080430122C3F808230F4B587910B95A7149
:1058D4001B6898470D4B1A6882B100221A601B6836
:1058E4000193019B4FF080430222C3F80823064B27
:1058F4001B68012003B05DF804EB184703B05DF8A2
:1059040004FB00BF00010040400A002004010040E5
:1059140000F1804000F5C040002382B003600368BA
:105924000193019B02B07047054B4FF0FF320728EB
:1059340043F8202084BF1B1883F85820704700BF09
:105944004C0A002003682F2B10B5044604D90749DC
:105954004FF4F370FEF796FC23681F2B83BF03F00C
:105964001F03236002484FF0A04010BD94B800000C
:105974000003005013B5019001A80C46FFF7E2FFA5
:10598400019B00EB8300D0F8002722F44032C0F8DA
:105994000027D0F8003743EA0443C0F8003702B0C8
:1059A40010BD00004FF0A043D3F810350360024B44
:1059B400D3F81035436070470003005010B5174CFE
:1059C40094F86A3043BB04F130033021FF220139DB
:1059D40011F0FF0103F8012BF9D1C8B2FFF7A4FFBE
:1059E40001310C29F9D1062200210D4805F0C0F936
:1059F4000C4BC02283F8062340221A604FF4BE7079
:105A0400FFF786FF084B4FF00042C3F8042301233D
:105A140084F86A30002010BD0820FCE74C0A0020FE
:105A2400B00A002000E100E000600040034B93F85E
:105A34006A00003018BF0120704700BF4C0A0020E4
:105A44002F282DE9F34105460F46904604D93E49D7
:105A540040F20720FEF716FC3C4E731993F93030E0
:105A6400002B6FDABB78C3F34003002B0BBF082471
:105A740000240C2108218C4203D1042002B0BDE88B
:105A8400F08156F82420013243D1721946F824805B
:105A940082F8304013B9331983F85850BB785A0749
:105AA40017D4D90737D501A80195FFF74BFF019B00
:105AB40000EB8300D0F8003723F00203C0F800376E
:105AC4002349EA0805F0070001238340885C034367
:105AD4008B54B8783A7810F002002AD0A40004F16C
