:040FF80000200700CE
:040FFC0000E007000A
:0200000270008C
:10200000000001205D230700452307004723070048
:10201000492307004B2307004D2307000000000061
:10202000000000000000000000000000014F070059
:102030005123070000000000532307005523070029
:10204000572307005723070057230700572307008C
:10205000572307005723070057230700572307007C
:10206000572307005723070057230700572307006C
:10207000572307005723070057230700572307005C
:1020800071700700572307005723070057230700E5
:1020900057230700572307009D9E0700572307007B
:1020A000572307005723070057230700572307002C
:1020B000572307005723070000000000000000001E
:1020C000572307005723070057230700572307000C
:1020D000096A070057230700572307000000000084
:1020E00000000000000000000000000000000000F0
:1020F00000000000000000000000000000000000E0
:1021000000000000000000000000000000000000CF
:1021100000000000000000000000000000000000BF
:1021200000000000000000000000000000000000AF
:10213000000000000000000000000000000000009F
:10214000000000000000000000000000000000008F
:10215000000000000000000000000000000000007F
:10216000000000000000000000000000000000006F
:10217000000000000000000000000000000000005F
:10218000000000000000000000000000000000004F
:10219000000000000000000000000000000000003F
:1021A000000000000000000000000000000000002F
:1021B000000000000000000000000000000000001F
:1021C000000000000000000000000000000000000F
:1021D00000000000000000000000000000000000FF
:1021E00000000000000000000000000000000000EF
:1021F00000000000000000000000000000000000DF
:10220000314932480A1A02D0072291438D4630499B
:1022100030480A1A06D00722914381F30988022226
:1022200082F314882C482D492D4A00F03CF82D48A3
:102230002D492E4A00F037F82D482E492E4A00F03D
:1022400032F82E482E492F4A00F02DF82E482F49FB
:102250002F4A00F028F82F482F49304A00F023F881
:102260002F483049304A00F01EF8304830490022EB
:1022700000F024F82F483049002200F01FF82F4AC0
:1022800090471F481F49884205D00268043003B4B4
:10229000904703BCF7E700208646EC46002000216B
:1022A000274A9047FEE7884207D0521A05D00378A4
:1022B00001300B700131013AF9D17047884202D0E8
:1022C00002700130FAE770470000012000F800209A
:1022D0000000012000000120F4D90700CC570020A5
:1022E00020580020BC230700BC2307001CA40700C3
:1022F000F4D90700CC570020CC5700201CA50700BC
:102300001CA507001CA507001CA507001CA50700AD
:102310001CA507001CA507001CA50700F4D9070091
:1023200048DA0700205800202058002020580020BC
:102330002CA000202CA000202CA00020852307002A
:1023400061520700FEE7FEE7FEE7FEE7FEE7FEE775
:10235000FEE7FEE7FEE7FEE7704700BF1048804754
:1023600010484FF00701884385460F4880470F48C3
:10237000016841F470010160BFF34F8FBFF36F8FAD
:10238000FFF73EBF0A480B490B4A884207D0521A52
:1023900005D0037801300B700131013AF9D1704753
:1023A0005923070000000120A971070088ED00E013
:0C23B00008A50700B8570020CC570020FB
:1023BC007047000007B5044B0093044A402300F01B
:1023CC0032F803B05DF804FBDD2307002158002030
:1023DC002DE9F84389461446B2B10F4B0F4E032535
:1023EC00002743F00108224609EB0701002003F007
:1023FC00BDFF0744241A48B933782BB14FF47A4007
:10240C00C047013D02D13570BDE8F883012333701C
:10241C00002CE8D1F8E700BF20A5070020580020C9
:10242C00704703F0D7BFF0B595B01C46164608466A
:10243C000D4601F052FD1A9B0D93CDE90864002462
:10244C002346082205A928460A948DF82C400C94A2
:10245C0001F06AFD079B0293069B03939DF81430D1
:10246C008DF8114003F00302012A1DD1BDF8144070
:10247C00059EC3F3C203C4F383148DF81030A2007D
:10248C0008230EA9284601F04FFDC6F3952608AB8C
:10249C000093224602AB0EA9304600F021FC2846E0
:1024AC0001F01FFD15B0F0BD022AF8D1BDF81640A1
:1024BC00C3F3C203A4098DF810300827082C264654
:1024CC0028BF08263B4632460EA9284601F02CFDB3
:1024DC00A41B08AB02AA31460EA8374400F064FCDA
:1024EC00002CEBD1DBE7000008B5FFF79AFF0421C5
:1024FC00064800F05FFB002803DA0549412000F094
:10250C00E3FD044B01225A7108BD00BFC8A40700AB
:10251C0034A50700CC570020037813F0040216D022
:10252C0003F00303012B03D0022B09D001207047C9
:10253C000A6800880232C0F3831002440A60F5E78F
:10254C000B684288023303EB92130B60EEE71046E4
:10255C00704700002DE9F04F89B000230446851C1C
:10256C000DF10F000F4690468DF80F3000F040FD36
:10257C00484806683E60D0E90132134401339B1B86
:10258C00454E8246A6F10409A6F10807AB421BD3BF
:10259C000022B8F1000F77D0052363F3070264F330
:1025AC008912DAF80010DAF808309DF80F000B40A9
:1025BC0003330D444AF82320CAF8005000F048FDBC
:1025CC00012009B0BDE8F08F0121304600F069FE12
:1025DC00484600F07FFE384600F07CFEDAF8040036
:1025EC00DAF808B0049000EA0B0003300AEB800024
:1025FC0004A9FFF791FF03460498002BF3D10BEAD3
:10260C0000020AEB820200F1020CD2680592013042
:10261C0000EA0B0B0AEB8B0B02F00302012ACDF83C
:10262C0010C0DBF80C1026D0022A08D01B490193ED
:10263C004FF4BF7000F048FD019B9B4608E0BDF8CD
:10264C001620920903320CEB92024FEA114B0492C2
:10265C00384600F042FE10B1049BCAF804305946CB
:10266C00304600F01EFEDAE901231344DAF80020AC
:10267C0001339B1A8AE7BDF81430C3F38313634408
:10268C004FEA114B0493E3E7062363F3070264F369
:10269C009F5286E734590020506900209EA5070000
:1026AC000D4B0E4840F2FF3241F2180110B59A6002
:1026BC0000225A5041F21401C3E900225A5003F58A
:1026CC0081531A7001F0C2FB044610B9044801F0A2
:1026DC003FFC204610BD00BF34590020A0A40700C9
:1026EC00F0A5070030B50A4C71B10A4A0A49121B11
:1026FC00D20800239A4201D1002030BD31F823507A
:10270C00854202D00133F5E7034654F83300F4E771
:10271C0030A40700A0A40700B8570020094B0139CA
:10272C0003EBC000032909D8DFE801F00A02040614
:10273C00042070470079704740797047002070473B
:10274C000220704730A40700034BD3E90030C31AB2
:10275C0058425841704700BF345900202DE9F043CE
:10276C0087B0FFF7F1FF0646002840F00381824D49
:10277C0041F21803E850BFF34F8F6868AC680290C1
:10278C00204003307D4F05EB800002A9FFF7C4FE0B
:10279C00029B10B13A68002A61D004EA0302991C2A
:1027AC00013305EB8202234005EB8303D268DB681F
:1027BC00049302F00303022B0392029167D1BDF83C
:1027CC000E306F484FEA9318B8F1500FC14628BF2E
:1027DC004FF0500969F38F1309F10801ADF80E3071
:1027EC0001F04CFB0746002800F0AE8001F075FBB1
:1027FC0003A900230822384601F082FB029924EA3F
:10280C0001060136B600B1453AD95FFA89F9A6B38B
:10281C00F6B2A9EB0609214003315FFA89F4B146FF
:10282C00584E05EB810108234A46384601F068FBF7
:10283C0036B109F1080322463146384601F060FBF7
:10284C00029B08F1030803EB9803029341F218036F
:10285C00EB58002B4FD141F21003EC585EE02A6884
:10286C009A4204D86A60304607B0BDE8F08304EAA7
:10287C000300033005EB800087E742493446D2E77A
:10288C002140033108234A4605EB8101D5E7012B92
:10289C005AD1BDF80C303A48C3F38311062928BF2E
:1028AC00062161F3891302318900ADF80C3001F077
:1028BC00E5FA0746002847D001F00FFB0023082259
:1028CC0003A9384601F01CFB0026BDF80C20C2F30E
:1028DC008312B300964203F10803B7D202994A1C43
:1028EC0021400331029205EB81010422384601F0AC
:1028FC0007FB0136E9E7384601F0F3FAFFF724FF4E
:10290C0080F00100C6B2AEE7E3685B7923B12368BF
:10291C0039461B6820469847E3681C68002CF3D1A5
:10292C00384601F0DEFA0DF107008DF8074000F093
:10293C005FFB41F21803EB580BB9029B6B609DF8DF
:10294C00070000F085FBD9E741F21003EC5854B9AD
:10295C000D4B0E480E49C01AC008000440F002008E
:10296C0000F084F8CAE7236820469B689847E36820
:10297C001C68ECE7002676E7345900204C690020EF
:10298C00A0A407004059002030A4070030A4070081
:10299C00FCA507002DE9F74F2E4D80460F469146BA
:1029AC0001A9012218461E46D5F808A0FFF7D2FD52
:1029BC0000283CD0019C0023A01CB34203EB000177
:1029CC003FD10021244800F036FC80F3100B234B40
:1029DC00234A4FEA18499B1AB9EBD30F04D3214968
:1029EC0040F2A31000F070FB631C03EA0A0305EB32
:1029FC00830349EA0B42DA6004EA0A03033315F84D
:102A0C00232068F3C50205F8232035F8232066F34C
:102A1C00891225F8232055F8232067F39F2245F8C7
:102A2C00232002F0F80242F0010205F823200E4B9D
:102A3C001B781BB1FFF792FE0028FBD103B0BDE859
:102A4C00F08F0AEA010105EB810159F82320CA60D5
:102A5C000133B2E73459002050690020A0A40700CC
:102A6C0030A407009EA507005469002000231A46D5
:102A7C00FFF790BF07B50123019201AAFFF78AFF68
:102A8C0003B05DF804FB07B5CDE9002302236A46C9
:102A9C00FFF780FF03B05DF804FB1FB5CDE9012300
:102AAC00069B039301AA0323FFF774FF05B05DF89F
:102ABC0004FB1FB5CDE90023069B0293079B0393F0
:102ACC006A460423FFF766FF05B05DF804FB7FB58B
:102ADC00CDE90123089B0393099B04930A9B05935F
:102AEC0001AA0523FFF756FF07B05DF804FB0000B1
:102AFC002DE9F34780462C4CD01C8A46174601A979
:102B0C0000228008A568FFF725FDC8B3DDF8049006
:102B1C00A66809F10200019001362840361AB60069
:102B2C000330B74204EB800034D83A46514607F0E4
:102B3C00C1FB00211D4800F07EFB80F3100009F161
:102B4C0001032B4004EB83034FEA184242EA004294
:102B5C00DA6005EA0903033304EB830214F823104B
:102B6C0068F3C50104F82310518867F38F11518065
:102B7C0034F8232002F0380242F0020224F8232019
:102B8C000B4B1B781BB1FFF7E9FD0028FBD102B002
:102B9C00BDE8F0873246514607F08CFBBA1B0AEBB6
:102BAC00060104F10C00C2E73459002050690020E2
:102BBC005469002030B541F210030F49CA58002364
:102BCC00144644B9C46823715AB941F210054851EE
:102BDC002260184630BDE46825799D4206D02468F1
:102BEC00EFE7D268116821601060F2E701330A2B1D
:102BFC00E6D14FF0FF33ECE73459002038B541F201
:102C0C001002094B9C5803F58152012313701D4689
:102C1C0004B938BDE3685D71236820465B6898474A
:102C2C00E3681C68F4E700BF34590020037A052BD5
:102C3C0010B50C460FD0437A23B1084A08492046F8
:102C4C0000F0F6FB0749204600F0F2FB2046BDE8F9
:102C5C00104000F0DBBB002AF8D0F3E747A60700D2
:102C6C002BCE070069A60700C38873B504460D4632
:102C7C0033B1144A00921449144A284600F0D8FB88
:102C8C00217A05291CD0637A4BB1A088FFF746FD49
:102C9C000F4B104953F82020284600F0C9FB227A2C
:102CAC000D4BA08853F822600021FFF71BFD0B4948
:102CBC0003463246284602B0BDE8704000F0B8BB6F
:102CCC0002B070BD47A6070054A607004CA607002B
:102CDC0014A607002BCE070078A607006CA60700E9
:102CEC002DE9F04385B01F460C9D002306460C468B
:102CFC00904695F80C902B7329463846FFF7B4FF95
:102D0C00B8F1060F09D8DFE808F00412181F2833B1
:102D1C0040003146284600F08BFB002229463846FD
:102D2C00FFF784FF85F80C9005B0BDE8F0832268AE
:102D3C003146284600F07CFBEFE7D4E9002331460E
:102D4C00284600F075FBE8E7A36800933146D4E908
:102D5C000023284600F06CFBDFE7E3680193A368CF
:102D6C0000933146D4E90023284600F061FBD4E7F8
:102D7C0023690293E3680193A36800933146D4E975
:102D8C000023284600F054FBC7E7636903932369CB
:102D9C000293E3680193A36800933146D4E90023BE
:102DAC00284600F045FBB8E708292DE9F84F804686
:102DBC000E4617461C463AD8002593F80C901D7306
:102DCC0019461046FFF750FFDFF884A0DFF884B0F7
:102DDC00AE422ED918F805205946204600F028FBA3
:102DEC000135082DF4D11849DFF86CB0204600F0FD
:102DFC001FFB4FF0000A564520D918F80A507E2DBB
:102E0C0003D8284607F016FA00B92E252A4659464B
:102E1C00204600F00DFB0AF1010ABAF1080FEAD1C5
:102E2C00012221463846FFF701FF84F80C90BDE8DB
:102E3C00F88F5146204600F0FBFAD1E703492046B3
:102E4C0000F0F6FAE7E700BF42A6070040A607002D
:102E5C003EA6070038A6070044A607004B1C30B559
:102E6C00DB00044612F003009BB20DD1074D2A6023
:102E7C001A44074B1A60074B1870074B1870074B16
:102E8C001C80074B198030BD0720FCE7F869002037
:102E9C00F4690020F0690020006A0020FC69002021
:102EAC00FE6900202DE9F3472B4D2B888B420646FB
:102EBC000C4617464CD34FF000080DF107008DF867
:102ECC00078000F095F8254B254A18781178CBB27D
:102EDC00244909888B4238BF0133C0B238BF5FFA2E
:102EEC0083F840452ED092F800801378DBB29942DB
:102EFC0086BF0133DBB2002313709DF8070000F08E
:102F0C00A7F84FF6FF73984524D0DFF860A0DAF8E5
:102F1C0000304FEAC80903EB090243F83870A6B138
:102F2C009CB1114B28881B68224608FB00303146A7
:102F3C0007F0C0F9DAF800304B4400209C8002B056
:102F4C00BDE8F0874FF6FF78D7E700209080F6E7D2
:102F5C000920F4E70420F2E7FC690020006A002055
:102F6C00F0690020FE690020F4690020F869002057
:102F7C00F8B5124C124D264622782B789A4200D185
:102F8C00F8BD23780F48104A078812680F48DBB247
:102F9C0019B202EBC10C006852F83120BCF80410D5
:102FAC0003FB070090470A4A23781288DBB29A4247
:102FBC0086BF0133DBB200233370DDE7006A0020EB
:102FCC00F0690020FC690020F8690020F4690020F9
:102FDC00FE690020EFF30583C3F308032BB9EFF36D
:102FEC001480C04300F001007047012070470000BE
:102FFC0070B50446FFF7EEFF012803D010494320BB
:10300C0000F062F8EFF3108672B60E4A9068012356
:10301C0098B993600C4B0D4DD3F88010294011607A
:10302C00C3F88050D3F8841051604FF0FF32C3F8CE
:10303C008420207006B962B670BD2370FAE700BF19
:10304C00DDA60700046A002000E100E0FC06FFBDDD
:10305C0010B50446FFF7BEFF012803D009495120E3
:10306C0000F032F8084B9A685AB154B9EFF310815A
:10307C0072B6064A18681060586850609C6001B9B6
:10308C0062B610BDDDA60700046A002000E100E076
:10309C0030B53AB11368DB430A4D0144814204D187
:1030AC00D84330BD4FF0FF33F6E710F8012B5340F7
:1030BC00082213F0010418BF2C46013A84EA53038A
:1030CC00F7D1EBE72083B8ED07B5ADF8000001911F
:1030DC006A46002144F2020002F092F803B05DF857
:1030EC0004FB10B561B1B2FBF3F403FB1424A4B2DE
:1030FC0044B9C0E9001484608281C381204610BDAC
:10310C000E20FCE70920FAE782B050E8022FC188B4
:10311C00B2EB324F4FF0000317BF92B241EA0141BC
:10312C0042EA014104E04268B2EB324F08BF01238E
:10313C0040E80212002AE8D18DF807309DF80730DC
:10314C00002B0CBF1120002002B0704737B550E89F
:10315C00013F9DB2C48925448489A54228BF2D1BFB
:10316C000489A54202BFBFF32F8F002207E0C5EAF6
:10317C00030540E80154002CE9D14FF001028DF811
:10318C0003200193019B9DF803200B6002F0FF03C9
:10319C0022B10B880068184403B030BD1846FBE719
:1031AC000A884B889A4209D150E8012FC2EA0242A0
:1031BC0040E80123002BF7D1012070470020704715
:1031CC0037B550E8023F1FFAA3F5C488A54202BFE9
:1031DC00BFF32F8F00220DE0C48925448489A542BA
:1031EC0028BF2D1BC3EA054540E80254002CE8D14A
:1031FC004FF001028DF803200193019B9DF80320F1
:10320C000B6002F0FF0322B14B880068184403B036
:10321C0030BD1846FBE70A884B889A4209D150E822
:10322C00022FC2EA224240E80223002BF7D10120F0
:10323C0070470020704750E8002F0B4640E8003CD8
:10324C009CF0000FF7D11046704750E8002F42EA6F
:10325C00010340E8003C9CF0000FF6D1104670478B
:10326C0050E8003F43EA010240E8002C9CF0000FBC
:10327C00F6D11046704750E8002F02EA010340E8EF
:10328C00003C9CF0000FF6D11046704750E8003F10
:10329C0003EA010240E8002C9CF0000FF6D1104626
:1032AC00704750E8003F03EB010240E8002C9CF013
:1032BC00000FF6D11046704750E8003FA3EB010217
:1032CC0040E8002C9CF0000FF6D11046704701210D
:1032DC00FFF7BBBF0121FFF7C3BF0021FFF7CBBF37
:1032EC000021FFF7D3BF000010B50446002834D0EE
:1032FC0003681BB91A49FF20FFF7E6FE636823B980
:10330C0017494FF48070FFF7DFFEA36823B9144907
:10331C0040F20110FFF7D8FEE36823B910494FF4CF
:10332C008170FFF7D1FE238A23B90D4940F20310B7
:10333C00FFF7CAFED4E9012321689B1ADBB20A60AD
:10334C00013BDBB2FF2B226802D10020107110BDB3
:10335C001168481C10600B70F2E70E20F7E700BFF5
:10336C0036A7070037B5054620B913494FF49270BC
:10337C00FFF7AAFE00240DF107008DF80740FFF7B8
:10338C0037FE2A686B68116899420ED9481E106086
:10339C0011F8014CEB68298A01FB0434AB681179F4
:1033AC001B1ADBB2994238BF13719DF80700FFF767
:1033BC004FFE204603B030BD36A7070037B50C468C
:1033CC00054620B9104940F24710FFF77DFE24B99D
:1033DC000D494FF4A470FFF777FE00230DF10700A1
:1033EC008DF80730FFF704FE2A681368591C11602A
:1033FC00EA68A41A2A8AB4FBF2F41C709DF8070040
:10340C00FFF726FE03B030BD36A7070010B5044603
:10341C0018B906493120FFF757FEA2682AB1636933
:10342C002168206998470023A36010BD81A707007D
:10343C000EB433B5059D044618B911494220FFF767
:10344C0043FE63691BB90E494320FFF73DFE236819
:10345C001BB90B494420FFF737FE63681BB90849B9
:10346C004520FFF731FE35B106AB01AA29462046AF
:10347C00019300F077F802B0BDE8304003B070471C
:10348C0081A707000A2938B504460D4602D10D2143
:10349C00FFF7F8FFA3682268591CA160D554D4E942
:1034AC0001329A4204D32046BDE83840FFF7AEBF44
:1034BC0038BD00002DE9F84F9946DDE90A4317465F
:1034CC00824688460A460126BA420FD24E4538BF7C
:1034DC004E4613F0010B01D164B900240125B9F15A
:1034EC00010F1AD909F1FF397D43F8E7B2FBF7F266
:1034FC000136E9E79B070ED5B9F1000F0CBF30255B
:10350C002025A642EAD2013C29465046FFF7BAFFD5
:10351C00002CF6D1E1E72025F3E7B8FBF5F39F4249
:10352C00E2D9DFF83C90B8FBF5F3504619F80310DC
:10353C0005FB1388FFF7A6FFB5FBF7F3BD4207D2D7
:10354C00BBF1000F02D00CB1A64203D3BDE8F88F3B
:10355C001D46E8E720215046013CFFF793FFF2E7B8
:10356C00C2A707002DE9F74F88461746054620B934
:10357C00A8494FF4A270FFF7A7FD6B6923B9A549C1
:10358C004FF4A370FFF7A0FD2B6823B9A14940F2BB
:10359C004710FFF799FD6B6823B99E494FF4A4704F
:1035AC00FFF792FDB8F1000F00F0308118F8011B05
:1035BC0049B92B7B002B00F02981284603B0BDE8CC
:1035CC00F04FFFF723BF252940F0C080002698F864
:1035DC0000302D2B424608F1010823D0302B24D08B
:1035EC002B2B25D000242A2B02F1010123D13B687F
:1035FC001A1D1B683A601C440A4613782E2B26D1E0
:10360C0001324FF00009104610F8011BA1F1300CEB
:10361C00BCF1090F1DD80A2303FB0913A3F13009D0
:10362C000246F0E746F00106D1E746F00206CEE787
:10363C0046F00406CBE711F8013CA3F13000092851
:10364C00DBD80A2202FB0434303C0A46CBE74FF0AD
:10365C00000912F8011B01F0FB0068289046F8D015
:10366C0069290ED04AD8582964D006D825296DD09E
:10367C0098F80030002B99D19BE7632962D064291C
:10368C00F6D13A68D2F800A0111D8AEAEA723960C4
:10369C00A2EBEA724FF0010B092A5BDCCB4538BF79
:1036AC00CB462CB1BAF1000F01DB720700D5013CFF
:1036BC00B30702D5B9F1000F04D0F00702D4002CE7
:1036CC004ED10024BAF1000F52DACAF1000A2D21B2
:1036DC002846FFF7D7FE06F00302022A05D1B9F1FE
:1036EC00000F02D1002C47D10024CDE900464B46F7
:1036FC000A2251462846FFF7DDFEB9E773294CD064
:10370C0014D87029B4D13B681A1D3A603021284670
:10371C001C68FFF7B7FE78212846FFF7B3FE00229E
:10372C000823CDE9003221461022E3E775292BD07E
:10373C0078299DD139680A1D3A60CDE900464B467F
:10374C00102228E03B681A1D19783A602846FFF7CA
:10375C0099FE8DE70A230BF1010BB2FBF3F29BE709
:10376C00A345AFD220212846013CFFF78BFEA6E7EC
:10377C007107B0D52B21ABE7A345B6D23021284633
:10378C00013CFFF77FFEADE73968CDE900460A1D25
:10379C003A604B460A220968ACE73B681A1D3A604E
:1037AC0016F00106D3F800A020D1BAF1000F03D017
:1037BC00504606F0FDFD0646B44200D9C4B90AF1E4
:1037CC00FF3A1EE028460136FFF75CFE1AF8061099
:1037DC000029F7D1A642BFF44BAF002C3FF448AF01
:1037EC0020212846013CFFF74DFEF3E70026EDE7CC
:1037FC0020212846013CFFF745FEDDE72846FFF770
:10380C0041FE1AF8011F0029F8D131E703B0BDE8D9
:10381C00F08F00BFD2A7070070B50D4616460446C0
:10382C0018B908495520FFF74FFC1DB9054956201A
:10383C00FFF74AFC25602B6831462046BDE87040F6
:10384C00184700BF1AA807002DE9F041DDF81880D1
:10385C000E4617461D46044618B922498820FFF724
:10386C0033FC1FB91F498920FFF72EFC23681BB9B5
:10387C001C498A20FFF728FC45BB1A498B20FFF70F
:10388C0023FCB20703D017499120FFF71DFCBB079F
:10389C0003D014499220FFF717FCE3689E4204D32F
:1038AC00731E22692B44934203D90E499320FFF7D0
:1038BC000BFC2368CDF81880D3F80CE03A462B4665
:1038CC0031462046F446BDE8F041604763685A68CB
:1038DC00B5FBF2F302FB1353002BD2D001498E201F
:1038EC00CDE700BF1AA807002DE9F0410D4616469A
:1038FC001F46044618B919499E20FFF7E5FB2368BB
:10390C001BB916499F20FFF7DFFB1EB91349A020F6
:10391C00FFF7DAFB63681B68013B2B4203D00F49AE
:10392C00A320FFF7D1FBE3689D4207D363681B68B4
:10393C006A1E03FB06232269934203D90749A82078
:10394C00FFF7C2FB2368D3F810E032463B4629460A
:10395C002046F446BDE8F041604700BF1AA80700B6
:10396C0070B508B10368ABB90C4D0D4C0026641B47
:10397C001423B4FBF3F4B44201D1002009E02B680A
:10398C0013B901361435F6E7DB6928469847002849
:10399C00F7D070BDDB69BDE870401847B857002000
:1039AC00CC570020014B43600020704778A80700DB
:1039BC000846704700207047024B1868003018BF4B
:1039CC0001207047106A002008B50248FFF788FCF8
:1039DC00002008BD106A002008B510461A4606F0F3
:1039EC0069FC002008BD00002DE9F043814687B03A
:1039FC0014480F4616469846FFF769FC0446F0B982
:103A0C000546AE4215D10F48FFF76AFCD9F80830CD
:103A1C005BB102228DF800200022CDE90127CDE90F
:103A2C000326CDF8148068469847204607B0BDE8B9
:103A3C00F08307EB053000F06DFC0135E1E7112454
:103A4C00F3E700BF106A00202DE9F041804686B0F4
:103A5C0011480F4616461D46FFF739FC0446C8B9F7
:103A6C00AA083146384600F06DFC0B48FFF738FCCD
:103A7C00D8F8083053B101228DF800200C9A059229
:103A8C00CDE90147CDE9036568469847204606B065
:103A9C00BDE8F0811124F9E7106A002029DF704796
:103AAC0028DF704770B503689D6886B004460E46E3
:103ABC006DB114220021684606F025FCA36805931D
:103ACC00237901962BB1012B0DD06846A84706B07F
:103ADC0070BD01238DF8003023690293E3680393D2
:103AEC0063690493F1E702238DF80030E3681B034C
:103AFC000293F5E70846704700207047024B187A8E
:103B0C00003018BF01207047006C0020034B187A5E
:103B1C000122B0FA80F05A7440097047006C002002
:103B2C0008B510461A4606F0C5FB002008BD00007B
:103B3C0008B514220021044806F0E5FB0348FFF702
:103B4C00E3FA002008BD00BF006C0020F06B0020E1
:103B5C0010B5094C094B43602046FFF7B8FB48B938
:103B6C0006F07CF91C2320744FF4EE7204490548CE
:103B7C00FFF7B7FA002010BD006C0020A4A80700C6
:103B8C00146A0020F06B002070B5234C234E237A6E
:103B9C0025463BB922492348FFF712FB306008B990
:103BAC00606070BD346802232B72237973B1012BD2
:103BBC0022D020460321FFF775FF00232B726B6088
:103BCC0017491848BDE87040FFF725BBD4E9052319
:103BDC00D21A142A28BF1422D4E903109208012AFD
:103BEC0038BF012219441844FFF758FF50B111286F
:103BFC00DFD101232B72D4E7D4E903031844FFF778
:103C0C004FFFF3E72B7C002BCBD10146BDE8704076
:103C1C00022000F009B800BF006C0020186C0020D6
:103C2C00146C0020F06B002038B5831E012B43D898
:103C3C00224C237A002B3FD0022B09D103282ED003
:103C4C001F4B1B680022E2601A793AB1012A20D07E
:103C5C00637C6BBBBDE83840FFF796BFD3E9051218
:103C6C008D1A142D94BF521914329A619142EFD1CE
:103C7C0002284FF0000308BF19462372104B18BFDF
:103C8C000D211868FFF70EFF0E490F48FFF7C3FA16
:103C9C00DEE71A6901321A615B699A42E7E7E36869
:103CAC000133082B01D8E360D2E70023E360DFE7A0
:103CBC00BDE8384006F0C2B838BD00BF006C00202B
:103CCC00186C0020146C0020F06B002000F0FD0339
:103CDC00012B08D1044B00225A74421E5042504111
:103CEC001874FFF751BF7047006C002010B5064CDC
:103CFC00201DFFF7ECFA28B9637C1BB9BDE8104016
:103D0C00FFF742BF10BD00BF006C00202DE9F3414E
:103D1C0080460D460F4801A916461F46FFF716FAB6
:103D2C000446A8B11C22002106F0EDFA2D0B01234C
:103D3C00237101A9C4F80080A760E560666105489D
:103D4C00FFF72EFAFFF7D2FF002002B0BDE8F0819A
:103D5C000420FAE7F06B00202DE9F74381468846F2
:103D6C00104801A917461E46FFF7F0F90446B0B1FA
:103D7C001C22002106F0C7FA00250A9BA36001A9AA
:103D8C002571C4F80090C4E9037866610548FFF713
:103D9C0007FAFFF7ABFF284603B0BDE8F083042019
:103DAC00FAE700BFF06B00202DE9F74F99469DF81C
:103DBC003030019388461746054618B92249B6207B
:103DCC00FFF782F9EA8895F805B00BFB02FBABF123
:103DDC00040BCB4503D81C49C420FFF775F93E688A
:103DEC00B5F806A006EB09025A4509F1040188BF93
:103DFC00ABEB0906B1FBFAF43E600AFB141144B9B3
:103E0C00AAEB0107B74228BF37462EB903B0BDE86D
:103E1C00F08F2D68013CF2E7019A043108EB0403A2
:103E2C00681872B101463A461846F61B06F042FA7B
:103E3C00B2453C442D6857464FF0000128BF374629
:103E4C00E3E73A461946F0E7D0A80700FFF74CBA6B
:103E5C00F8B546790146721E0546002393422D683B
:103E6C0003D30024A64202D8F8BD0133F6E70F684D
:103E7C002846FFF7A3FA01343946F3E72DE9F84356
:103E8C00068ACD1C0746FFF76DFA043E35440446FE
:103E9C00B5FBF6F5F0B14FF48073EDB28380C680BC
:103EAC00013D076081464FF00008A84512D2384604
:103EBC00FFF758FA064648B163790133637108F18C
:103ECC000108C9F8000007608146EEE72046FFF7BD
:103EDC00BFFF34462046BDE8F88301210430FFF7CC
:103EEC00E0B910B5012104460430FFF7E5F910F0F4
:103EFC00FF0F04D12046BDE81040FFF7A9BF10BD4D
:103F0C001FB5144603920022009203AAFFF74CFF40
:103F1C00039BA34203D00349F620FFF7D5F804B066
:103F2C0010BD00BFD0A807001FB514460392012294
:103F3C00009203AAFFF738FF039BA34204D0034966
:103F4C004FF48070FFF7C0F804B010BDD0A8070084
:103F5C00836800225A609A60C3E90422DA601A600E
:103F6C007047000038B50D46044618B90949502071
:103F7C00FFF7AAF81DB907495120FFF7A5F82B68E0
:103F8C006A686360934208BF0023256008BF6360C2
:103F9C0038BD00BF1BA9070010B5044618B90B4962
:103FAC006320FFF791F823681BB908496420FFF7D9
:103FBC008BF8636843B12268916852680B44934252
:103FCC00636004BF0023636010BD00BF1BA9070022
:103FDC0010B50D49A1F59472914201D800200FE063
:103FEC008B1ADB1003EBD3735B1002EBC30452F898
:103FFC003330834205D802D204F10802ECE7606842
:10400C0010BD2146E8E700BFBCAA070008B5FFF7C2
:10401C00DFFF024B002808BF184608BD7FA9070028
:10402C002DE9F04FC9B008AA01F1400514464B78B0
:10403C000E781B0443EA0663CE7833438E78043142
:10404C0043EA06238D4244F8043BF0D11024916BD3
:10405C0016464FEAF14383EA714383EA9123716A6E
:10406C00366852F8045F31440B444FEAB54181EA9B
:10407C00F51181EAD50101340B44402CD363E6D110
:10408C00D0E914E30093836D0193C36D0293036E27
:10409C000393436E0493836E0593C36E0693DDE91D
:1040AC00057BDDE9031CDDE901592B4B009E0793D1
:1040BC0074464FF00008079B53F8042B07934FEA04
:1040CC00F12383EAB11383EA716A08AB53F8283001
:1040DC001A440AEB020327EA010A01EA0C028AEAF3
:1040EC0002021A444FEA743A86EA05035A448AEAF1
:1040FC00B40A06EA050B234083EA0B038AEAB45A96
:10410C0008F101089A44B8F1400F02EB0903BB46D1
:10411C005244A94619D172440265009A2244426560
:10412C00019A32448265029A2A44C265039A1A445F
:10413C00049B02660B444366059B63448366069BA3
:10414C003B44C36649B0BDE8F08F674635468C46A4
:10415C00264619461446AEE778AE070030B5E0B1F6
:10416C000F4A104900240025C0E91245C0E9141279
:10417C000D4C0E4A0E4DC0E916420E4AC0E91852BB
:10418C000D4A826602F17452A2F523020023A2F6B4
:10419C0092420364C266184630BD0E20FCE700BF95
:1041AC0085AE67BB67E6096A72F36E3C3AF54FA5BC
:1041BC007F520E518C68059BABD9831FF8B5044612
:1041CC00F0B10AB90020F8BDD1B10D468E18002708
:1041DC00B542F7D0236C15F8012BE2540133402B78
:1041EC002364F5D121462046FFF71AFFD4E912319A
:1041FC0013F5007341F10001C4E912312764E7E7BC
:10420C000E20E0E770B50D4616460446002877D020
:10421C00002975D0026C8021372A02F101038154E8
:10422C004FF0000242D8382B3BD1D4E91223206C3A
:10423C000821E1FB0023104612BAE2631A0A194660
:10424C0084F83B3084F83A201A0C1B0EC4E9120196
:10425C0084F83920214684F838302046FFF7E0FEF8
:10426C00691E76B30023E26EDA4001F8012FA26ECC
:10427C00DA400A71626EDA400A72226EDA400A7310
:10428C00E26DDA400A74A26DDA400A75626DDA40AA
:10429C000A76226DDA400833202B0A77E3D100200E
:1042AC0070BDE2540133BEE7E25401333F2BFBD91E
:1042BC0021462046FFF7B4FE3822002106F023F8F1
:1042CC00B3E71823226DDA4001F8012F626DDA4052
:1042DC000A71A26DDA400A72E26DDA400A73226E3C
:1042EC00DA400A74626EDA400A75A26EDA400A7617
:1042FC00E26EDA40083B13F1080F0A77E2D1CEE701
:10430C000E20CDE7024AD2F80034002BFBD07047C8
:10431C0000E001400A4908B50223C1F80435BFF397
:10432C006F8FBFF34F8FC1F80805FFF7EBFF00232A
:10433C00C1F80435BFF36F8FBFF34F8F08BD00BFBB
:10434C0000E001400E4B10B50124C3F80445BFF347
:10435C006F8FBFF34F8F01EB8204401AA14208D13B
:10436C00074B0022C3F80425BFF36F8FBFF34F8FA9
:10437C0010BD431851F8042B1A60FFF7C3FFEDE78B
:10438C0000E0014043689B68184708B54368083053
:10439C005A7900F0D3FE002008BD2DE9F0430D46FC
:1043AC009BB0084699469046FFF7ECFF6E6874790F
:1043BC004C4528BF4C4607462246414602A800F011
:1043CC00A1FE727922990AA800F0B8FE00970AABF8
:1043DC00224602A905F1080001F0E0FD002848F290
:1043EC00425018BF00201BB0BDE8F0830023C0E989
:1043FC0002328B881A44B1F9063002611A44C0E9C2
:10440C00001142610888003018BF012070474268D3
:10441C00118838B50346002937D0148A02F11001EF
:10442C0041602CB9C2680168FFF7E0FF204638BD37
:10443C009078118900F03005302D14D1947C04F063
:10444C003004302C1BD190881969091A196100218C
:10445C00908AB2F916200844196901441961114473
:10446C0059610120E3E700F0F004202C07D15089BA
:10447C004143002DECD1986801309860E8E700F0DA
:10448C00C000802808BF0421F3E70846CFE770B5C9
:10449C00456804460E4663681A88B24204D19B787C
:1044AC0003F00F03082B07D12046FFF7B0FF63681A
:1044BC00AB42F0D1002070BD0120FCE743681A44E8
:1044CC00426011B101399A4201D10120704713F8B1
:1044DC00010B01F8010FF6E783682DE9F34104465F
:1044EC00884623B90027384602B0BDE8F08103683E
:1044FC0001220DF10701984707460028F2D0A36866
:10450C009DF80750013B2A06A3601AD505F07F05DC
:10451C000726A368002BE5D0236801220DF10701C3
:10452C00204698470028DDD0A3689DF80720013B62
:10453C00A36002F07F03B3401D43130606F1070688
:10454C0002D4C8F80050CEE7232EE2D1CAE770B5EA
:10455C004568AA7802F00F06082E86B003461FD1D4
:10456C0003691C6800260CB906B070BD236862682C
:10457C009D68267329466846FFF738FF63680493E5
:10458C0004F10C030593AB7803F0C003802B08BF38
:10459C00231D684608BF0493FFF7D9FFA468E2E720
:1045AC0012F0C0011CD102F0300010280AD15A6957
:1045BC001170072EEC68186909D10146204600F0ED
:1045CC0017F8D1E79006F4D55B691980CCE72A89F6
:1045DC00214614B105F06EFEC6E705F094FEC3E764
:1045EC008029C1D10069002192060160BCD5EBE79E
:1045FC007FB50A4601466846FFF7F8FE30B16846BB
:10460C00FFF7A5FF6846FFF702FFF7E707B05DF875
:10461C0004FB000030B5044685B01546A9B9026804
:10462C00114B9A4211D0102D06D82A4669462046C5
:10463C00FFF7F0FF05B030BD102269462046FFF7AA
:10464C00E9FF0028F6D0103DEDE7A368AB4201D29C
:10465C000020EFE723682A46204698470028F7D029
:10466C00A3685D1BA560E5E7C9440700F7B50E46D6
:10467C0001A907461546FFF72FFFA8B1019A0123A0
:10468C00D3184FF0000404D2B17801F0C001802996
:10469C0001D1204608E031899942FAD3294638469F
:1046AC00FFF7B8FF019BEC5403B0F0BD73B50E4699
:1046BC0001A905461446FFF70FFFB8B1019BB3F5EE
:1046CC00803F07D202229A1804D2B17801F0C001BF
:1046DC00802901D1002009E031899142FAD3214689
:1046EC001A4621F8023B2846FFF794FF02B070BD32
:1046FC0010B5034C82600022C0E90041C26010BDBD
:10470C00C94407002DE9F3470025064688462F4685
:10471C002C46B36843B3336801220DF107013046D0
:10472C00984708B3B3689DF807C0013B0CF07F02B3
:10473C005FFA82F9C4F12001B360A4F1200309FAF5
:10474C0003F329FA01F109FA04F20B431CF0800F70
:10475C0045EA020547EA030704F1070402D1C8E958
:10476C00005702E0462CD4D1002002B0BDE8F087FF
:10477C0073B50C4669461646FFF7C4FF68B123892A
:10478C00082B0CD1DDE90045C6E90045DDE9002325
:10479C00AB4206BFA2420120002002B070BD042B28
:1047AC0004D1009B33601C460025EFE7022B4FF031
:1047BC00000004D1009B33809CB20546E6E7012B38
:1047CC00EBD1009B337003F0FF04F6E737B50D46D1
:1047DC0069461446FFF796FF30B12A89082ADDE9AD
:1047EC00003103D1C4E9003103B030BD042A1846AE
:1047FC004FEAE37108D123601A460B468B4206BF81
:10480C00824201200020EFE7022A04D11BB2238050
:10481C001AB2D317F2E7012A03D15BB223705AB252
:10482C00F7E70020E0E7F7B50C460021197021707E
:10483C00116001A9074615461E46FFF74DFE30B91B
:10484C00BB6813B901233370002003B0F0BD01998C
:10485C000029F7D0CB0801F007012B602170F4E799
:10486C0013B5044605291FD8DFE801F0030F151E08
:10487C001E1C012201A92046FFF7CCFE18B19DF9A0
:10488C000430002BF5DB02B010BD082200212046BD
:10489C00FFF7C0FEF7E701A9FFF71EFE0028F2D0D4
:1048AC00019AF3E70422F1E70020ECE773B50D461B
:1048BC0001A90446FFF710FE064618B9002630463B
:1048CC0002B070BD94E80F0085E80F0001998A4290
:1048DC00F4D3A960A3685B1AA360F0E72DE9F04359
:1048EC005568AB7813F0C00489B006468C46174661
:1048FC0003D0402C67D000240AE003F00F025D497E
:10490C0003F03003102B51F822801BD004D8E3B1F4
:10491C00204609B0BDE8F083202B1BD0302BF7D1FB
:10492C007B6929881980072A09D121462A89386987
:10493C0005F0E9FC7B683969D868FFF759FE3A69DC
:10494C0079683EE07B6901221A703A692946C047B2
:10495C000446DDE7BCF1020FD7F8149024D1042AE9
:10496C0022D804A9FFF7A2FF04460028C3D0069B57
:10497C002BB17968B9F800304A899A4205D8059B61
:10498C007360069B002BC3D0B5E708893A6903FB1B
:10499C00002204A8C04728B1B9F800300133A9F8A7
:1049AC000030E4E70446EAE7B9F800306A899A4235
:1049BC00A1D929893A69581C03FB0122A9F80000E6
:1049CC0029463046C3E7D2F81080454655F8043BDB
:1049DC0013B9FFF745FFBBE7022914D104A9FFF770
:1049EC0065FF002887D0D8F8003079682A4604A8DB
:1049FC009847044600283FF47EAF069B002BF2D16B
:104A0C00059B736084E701292BD04CB24CB105296E
:104A1C007FF471AF04220DEB0201FFF7FBFD0424C0
:104A2C0024E00DF1040901340B2C3FF464AF012296
:104A3C0049463046FFF7EEFD00283FF45CAF19F90C
:104A4C00013B002BEFDB0C4B049301ABCDE90534A0
:104A5C00002307932A46D8F80030796804A89847B1
:104A6C0076E7082201A9FFF7D5FD08240028EAD132
:104A7C0041E700BF84AF0700C94407002DE9F04FA0
:104A8C0091B00446002604A8CDE90266FFF7AEFCFF
:104A9C00A3683BBBDDE9053404A89D78FFF7B7FCA0
:104AAC000028F7D115F0300F03D1059B1B8803B1FB
:104ABC000134002C00F0A9806309002202A9934262
:104ACC0040F09C8010AA02EB830304F01F04C4F195
:104ADC0020044FF0FF3053F8383CE040C31A5842E2
:104AEC0058410DE00DF1030301AA0DF1020120461E
:104AFC00FFF799FE38B99DF80330002BCAD100207E
:104B0C0011B0BDE8F08F019904A8FFF7C0FC002894
:104B1C0050D1019BB3427DD3059D059A937803F048
:104B2C000F03082B7FD004A8FFF771FC059B9D4257
:104B3C00F3D14FF0FF36019FB7426BD3089B9DF822
:104B4C000290D4F808801D684FF0010AA368002D6C
:104B5C005DD098459CD12B68D3F800B0BBF1000F09
:104B6C0008D04B463A4629462046D8470028C6D09E
:104B7C00AD68EBE7D3F808B0BBF800309F42F7D133
:104B8C006A6859460AA8FFF731FC6B680E9305F169
:104B9C000C030F939BF8023003F0C003802B04BF6F
:104BAC002B1D0E930AAA85F80CA049462046FFF748
:104BBC0095FEDBE7059B9B7813F0300F0FD1069A1F
:104BCC003F2A0CD8510910AB03EB810102F01F02F4
:104BDC000123934051F8382C134341F8383CE568D5
:104BEC002DB104AB9DF8022001992046A84704AAD8
:104BFC009DF802102046FFF771FE10E051F822508C
:104C0C0001357FF47DAF013259E7012078E79845F3
:104C1C007FF43EAF9DF802102046FFF721FE0028DE
:104C2C007FF436AF6BE7168885E770B50C46064601
:104C3C00154611462046FFF7DBFC2A462146304636
:104C4C00BDE87040FFF71ABFF0B585B00C46CD68D3
:104C5C00694607461646FFF729FE68B1E06858B169
:104C6C00A37803F03003202B32462946684605D141
:104C7C00FFF7DBFF019B7B6005B0F0BDFFF7FEFE8D
:104C8C00F8E7D3B50C466946FFF73CFD80B1DDE98A
:104C9C00001300274A0801F0010642EAC37256EAE3
:104CAC0007014FEA53031CBFD243DB43C4E9002383
:104CBC0002B0D0BD37B50D4669461446FFF7E1FF8B
:104CCC0068B12B89082B0CD1DDE90001C4E9000186
:104CDC00DDE900238B4206BF82420120002003B095
:104CEC0030BD042B03D100982060C117F0E7022BD4
:104CFC0004D1BDF90000208000B2F6E7012B04D1ED
:104D0C009DF90000207040B2EFE70020E7E713B5F3
:104D1C0004220C460DEB0201FFF77CFC08B1019B51
:104D2C00236002B010BD1146FFF7F1BF13B5082286
:104D3C000C466946FFF76EFC18B1DDE90023C4E9A7
:104D4C00002302B010BD1146FFF7F0BF02494FF42B
:104D5C00F370FEF7B9B900BFE9AF0700032810B52F
:104D6C00044603D908494120FEF7AEF9074B1C5DF8
:104D7C001F2C01D9FFF7EAFF01234FF0A042A340FB
:104D8C00C2F80C3510BD00BFA8AF0700E5AF070097
:104D9C00032810B5044603D908494720FEF794F9B7
:104DAC00074B1C5D1F2C01D9FFF7D0FF01234FF0DF
:104DBC00A042A340C2F8083510BD00BFA8AF070041
:104DCC00E5AF070008B50020FFF7E2FF0120FFF771
:104DDC00DFFF0220FFF7DCFF0320BDE80840FFF7F0
:104DEC00D7BFC20710B504460CD54FF0A043032221
:104DFC00C3F84427C3F84827C3F84C27C3F85027F7
:104E0C00FFF7E0FFA3070AD54FF0A0430C22C3F82D
:104E1C003427C3F83827C3F83C27C3F8402710BD04
:104E2C0038B1054B0360054B43600123037200202E
:104E3C0070470E20704700BF734E07004D4E0700A1
:104E4C0069B10B78022B0CD1022804D003280CBFBB
:104E5C0011200820704703230B70002070470E2090
:104E6C0070470820704710B50C4681B10B78042BA5
:104E7C0004D8DFE803F00E05030E0E00112010BD60
:104E8C0003F04CFE0028FAD102232370F7E70E2022
:104E9C00F5E70820F3E7000070B5144B144A0C2119
:104EAC00D21AB2FBF1F2816911F8025C044635B9F1
:104EBC0000690021914205D1012323600EE04FF0DF
:104ECC00FF30F6E71E68AE420CD1461C07D19D6838
:104EDC00D4E90001D4E90223A847206070BD5E68C4
:104EEC008642F4D001310C33E4E700BF24A4070060
:104EFC0030A407001EF0040F0CBFEFF30880EFF393
:104F0C000980FFF7C9BF00BF28B139B10023C1E93F
:104F1C0000301846704748F21050704748F2135052
:104F2C00704730B1036848F240508B4208BF0020F4
:104F3C00704748F21050704728B148F21150914216
:104F4C0008BF0020704748F21050704770B50646F5
:104F5C000C461D46FFF7D8FF50B9B3794AB1AB42A6
:104F6C000AD111462046FFF710FA08B9044B23600A
:104F7C0070BD48F21050FBE748F21150F8E700BF43
:104F8C007052464D2DE9F0470C4607460F49204616
:104F9C0015469846DDE90869FFF7C3FF98B96368C1
:104FAC005A79494652003046FFF7C6FF58B945B109
:104FBC00089643462A4621463846BDE8F047FFF797
:104FCC00ECB948F21050BDE8F08700BF7052464D66
:104FDC0010B5044638B149B141600B68984708B91F
:104FEC00044B236010BD48F20150FBE748F210500F
:104FFC00F8E700BF6E524648F0B4134648B1076854
:10500C00094EB7420AD161B12AB14368F0BC5B6862
:10501C00184748F201531846F0BC704748F2025347
:10502C00F9E748F21053F6E76E524648F0B460B117
:10503C0007680C4EB7420CD171B143681568DC6837
:10504C00A5420CD39B68F0BC184748F20150F0BC49
:10505C00704748F20250FAE748F21350F7E748F26B
:10506C001450F4E76E5246482DE9F04104461746B9
:10507C009846DDE90656FFF7ABFF60B94246394664
:10508C002046FFF7B9FF30B9324629462046BDE825
:10509C00F041FFF7CBBFBDE8F0810000F8B50A4F37
:1050AC000A4C0B4DE41B0121E40829700026A64292
:1050BC0003D102232B700020F8BD57F836309847E7
:1050CC000028F9D10136F2E71CA407001CA4070044
:1050DC001C6C002038B50D46044618B9084933201D
:1050EC00FDF7F2FF691E21442046814200D238BDF3
:1050FC0003780A7800F8012B01F80139F5E700BFB5
:10510C0014B0070070B50D461446064618B90A4986
:10511C004520FDF7D9FF1DB907494620FDF7D4FFFF
:10512C00621E3244013DB24200D270BD15F8013FFF
:10513C0002F80139F7E700BF14B0070070B5164646
:10514C0004460D46FFF7DEFF3246A919A019BDE84B
:10515C007040FFF7D7BF38B50D460446FFF7BAFFCE
:10516C0029466019BDE83840FFF7B4BF08B50728D9
:10517C001BD8DFE800F004121A1A1A041A040120D2
:10518C00FFF72FFE0020FFF7E9FD0120FFF7E6FDFA
:10519C000220BDE80840FFF7FBBD0120FFF7F8FD3A
:1051AC000220BDE80840FFF7D9BD08BD08B5FDF7E2
:1051BC0025FDFDF7D3FA0028FBD10D4D642445F0F5
:1051CC0001054FF47A40A847013CFAD1094B1B6802
:1051DC00DB0700D500BEBFF34F8F0749074BCA68EA
:1051EC0002F4E0621343CB60BFF34F8F00BFFDE7C7
:1051FC0000B10700F0ED00E000ED00E00400FA055E
:10520C0007B5074B074C0092E41AE40824040B463C
:10521C000246054944F00100FDF73FFCFFF7C6FFCD
:10522C0030A4070030A40700A8B0070008B5064A50
:10523C00064B07499B1ADB081B04024643F001008E
:10524C00FDF718FCFFF7B2FF30A4070030A40700ED
:10525C00DFB007000022104638B54FF4805101F042
:10526C0099FA024608B1FFF7E1FF1348C0F5FC219B
:10527C0001F090FA01460028F5D11048104CFDF7CA
:10528C000FFAFDF731F90F4B0F49E41AE408240427
:10529C0044F003042046FDF7E9FB0C4801F02EF91D
:1052AC0005460028DFD101F037FA20460849FDF702
:1052BC00DDFB284638BD00BF00200700456B07000A
:1052CC0030A4070030A4070006B10700795107008D
:1052DC0012B107008B1802448B4200D1704713F8AF
:1052EC00010D02F8010DF7E70000000000000000BE
:1052FC0000000000C3F10803DB0070B5013300248B
:10530C0003A500BF5B1920C940CAAD1920C01847BE
:10531C0020C940CA754120C020C940CA754120C06F
:10532C0020C940CA754120C020C940CA754120C05F
:10533C0020C940CA754120C020C940CA754120C04F
:10534C0020C940CA754120C06441204670BD00BFD1
:10535C0000000000C3F10803DB0070B5013300242A
:10536C0003A500BF5B1920C940CAAD1B20C018475C
:10537C0020C940CAB54120C020C940CAB54120C08F
:10538C0020C940CAB54120C020C940CAB54120C07F
:10539C0020C940CAB54120C020C940CAB54120C06F
:1053AC0020C940CAB54120C06441B4FA84F0400918
:1053BC0070BD00BF2DE9F04F08B4F8CA04B451F821
:1053CC00042BA3FB028940F8048B4FF0000AE4FB8A
:1053DC00629A4FF0000BE5FB62AB4FF0000CE6FB62
:1053EC0062BC4FF0000EE7FB62CE51F8042B4FF07D
:1053FC000008E3FB628940F8048BE4FB629AE5FB4E
:10540C0062ABE6FB62BCE7FB62CE51F8042B4FF0BB
:10541C000008E3FB628940F8048BE4FB629AE5FB2D
:10542C0062ABE6FB62BCE7FB62CE51F8042B4FF09B
:10543C000008E3FB628940F8048BE4FB629AE5FB0D
:10544C0062ABE6FB62BCE7FB62CE51F8042B4FF07B
:10545C000008E3FB628940F8048BE4FB629AE5FBED
:10546C0062ABE6FB62BCE7FB62CE40F8049B40F803
:10547C0004AB40F804BB40F804CB40F804EB0CBC84
:10548C00052B00F01E810C68A0F11400A1F1140191
:10549C00A2F1140252F804EB4FF0000550F8046B23
:1054AC00E4FB6E5652F804EB50F8047BE4FB6E6799
:1054BC0052F804EB50F8048BE4FB6E7852F804EBD2
:1054CC0050F8049BE4FB6E8952F804EB50F804ABE3
:1054DC00E4FB6E9AA0F1140052F8044B51F804EB63
:1054EC004FF0000CE4FB6EC540F804CB51F804EB14
:1054FC00E4FB6E5640F8045B51F804EBE4FB6E677A
:10550C0040F8046B51F804EBE4FB6E7840F8047B34
:10551C0051F804EBE4FB6E8940F8048B51F804EB72
:10552C00E4FB6E9AA0E80006062B00F0CA800C681B
:10553C00A0F11800A1F11801A2F1180252F804EB25
:10554C004FF0000550F8046BE4FB6E5652F804EB78
:10555C0050F8047BE4FB6E6752F804EB50F8048BB4
:10556C00E4FB6E7852F804EB50F8049BE4FB6E8974
:10557C0052F804EB50F804ABE4FB6E9A52F804EBCF
:10558C0050F804BBE4FB6EABA0F1180052F8044BCE
:10559C0051F804EB4FF0000CE4FB6EC540F804CB63
:1055AC0051F804EBE4FB6E5640F8045B51F804EB45
:1055BC00E4FB6E6740F8046B51F804EBE4FB6E7887
:1055CC0040F8047B51F804EBE4FB6E8940F8048B43
:1055DC0051F804EBE4FB6E9A40F8049B51F804EB91
:1055EC00E4FB6EABA0E8000C072B6AD008B40C6887
:1055FC00A0F11C00A1F11C01A2F11C0252F804EB59
:10560C004FF0000550F8046BE4FB6E5652F804EBB7
:10561C0050F8047BE4FB6E6752F804EB50F8048BF3
:10562C00E4FB6E7852F804EB50F8049BE4FB6E89B3
:10563C0052F804EB50F804ABE4FB6E9A52F804EB0E
:10564C0050F804BBE4FB6EAB52F804EB50F804CBFF
:10565C00E4FB6EBCA0F11C0052F8044B51F804EBB7
:10566C004FF00003E4FB6E3540F8043B51F804EBBB
:10567C00E4FB6E5640F8045B51F804EBE4FB6E67F8
:10568C0040F8046B51F804EBE4FB6E7840F8047BB3
:10569C0051F804EBE4FB6E8940F8048B51F804EBF1
:1056AC00E4FB6E9A40F8049B51F804EBE4FB6EAB00
:1056BC0040F804AB51F804EBE4FB6EBCA0E8001816
:1056CC0008BCBDE8F08F002310B51C465AB29142BD
:1056DC0000DC10BD40F823400133F7E710B5002380
:1056EC001A465CB2A14203DCB2FA82F0400910BD4A
:1056FC0050F8234001332243F3E74A11012350F8B9
:10570C00220001F01F0103FA01F108407047013932
:10571C0049B20A06CBB205D4013900EB81025268BA
:10572C00002AF6D001335BB273B103F18042013A27
:10573C0050F82220002022B9013B00EB431318B291
:10574C00704752080130F6E71846704710B5002331
:10575C005CB2A24200DC10BD51F8234040F823405B
:10576C000133F5E710B5013A52B2130601D500200A
:10577C0010BD50F8224051F822309C4205D802F15D
:10578C00FF32F2D24FF0FF30F2E70120F0E700EBEE
:10579C0081010023884200D3704751F8042D43EA5D
:1057AC0052030B60D307F5E770B59DF910401E4608
:1057BC0023460546FFF79EFD30B922462946304662
:1057CC00FFF7D0FF012807D023463246294628464A
:1057DC00BDE87040FFF7BEBD70BD70B59DF91040BF
:1057EC001E4623460546FFF7B5FD38B12346324623
:1057FC0029462846BDE87040FFF77CBD70BD2DE9F9
:10580C00F04FB5B004AD9DF9F8401F4681462346D4
:10581C002846FFF7CFFD24AB21463846CDE90235AB
:10582C00FFF775FFC0EB841005B26B4203F01F034A
:10583C004FF0200695FBF6F676B205F01F0814A87B
:10584C0058BFC3F100083146FFF73DFFB8F1000F18
:10585C0030B22DDD14AB002203EB8000C8F1200C1C
:10586C001346A34219D327B27B00019314AB03EB6D
:10587C00870704F1FF3834AB012603EB8808002DB1
:10588C0053DA34AB03EB8606224656F8C81C48465E
:10589C00FFF75CFF35B0BDE8F08F57F8236006FAD0
:1058AC0008F10A4340F8232026FA0CF20133D8E71A
:1058BC0014AB2246394603EB8000FFF747FFD2E7D3
:1058CC000FFA82FE5AF8C83C53F82EB034AB03EBF7
:1058DC00820252F8803CABEB03031B1A9B4502D0AF
:1058EC0034BF012000205CF8C82C42F82E30013166
:1058FC00019B4AB29A42E3DB331A5E42214614A85A
:10590C005E41FFF744FF34AB03EB8403214653F8AD
:10591C00802C58F8803C384643EAC273013D48F865
:10592C00803C2DB2FFF733FFA9E734AB0021C6F161
:10593C00010C084603EB860A03EB8C0CD8E730B558
:10594C001C4691B0054693F900306846FFF732FDCE
:10595C00D4F8AC3069462846984711B030BD134690
:10596C000A46FFF7ECBF2DE9F04793F9006092B0BF
:10597C00044689461046314615469846FFF7AEFE5A
:10598C00002840F091804246494602A8FFF7E7FF05
:10599C00434602AA21460AA8FFF7D1FF02A90846EE
:1059AC004246FFF7DCFF43462A4649464846FFF786
:1059BC00C6FF08F10407424629462846FFF7CFFFE9
:1059CC003B462A46214620460096FFF7EDFE3B4615
:1059DC002A46294628460096FFF7E6FE3B462A460D
:1059EC00214628460096FFF7F8FE43462A462146F4
:1059FC002046FFF7A4FF3B46224621462846009648
:105A0C00FFF7D2FE3B4600962A4621462046FFF77A
:105A1C00CBFE2368DB074AD533463A46214620465F
:105A2C00FFF768FC314682462046FFF7B0FE06F1D0
:105A3C008043013B54F8230040EACA7044F8230029
:105A4C00424621462846FFF78AFF3B460AAA2946CA
:105A5C0028460096FFF7C1FE3B460AAA294628466F
:105A6C000096FFF7BAFE0AA908463B462A4600965E
:105A7C00FFF7B3FE43460AAA21462046FFF75FFF15
:105A8C0002AA3B46104621460096FFF7A6FE324678
:105A9C0029462046FFF75AFE49462846FFF756FE90
:105AAC0002A94846FFF752FE12B0BDE8F087314616
:105ABC002046FFF76CFEC3E72DE9F0438BB004469C
:105ACC00154689460AAE1C22002103A804F01BFCD3
:105ADC00032346F8203D95F900802A464946204686
:105AEC002F1DFFF73CFF3B46324621462046CDF8A2
:105AFC000080FFF772FE2B464A4621462046FFF7F0
:105B0C001EFFCDF800803B4605F18402214620465D
:105B1C00FFF74AFE0BB0BDE8F0830000F0B5082299
:105B2C0089B00C460646FFF711FECB6A03930B6B4C
:105B3C0004934B6B05938B6B0693CB6B07930027EE
:105B4C0008236A4669466846CDE901770097FFF756
:105B5C00D1FB082305466A4631463046FFF7CAFB9F
:105B6C00236B0393636B0493A36B0593E36B054463
:105B7C00CDE906376A46082369466846FFF7BAFB43
:105B8C00082305446A4631463046FFF7B3FB236AC7
:105B9C000093636A0193A36A0293A36B0693E36B6E
:105BAC000793054408236A4631463046CDE904770D
:105BBC000397FFF79FFB636A0093A36AA26B0193A1
:105BCC00E36A02930492636BE26B0393CDE90523C2
:105BDC00236A0793054408236A4631463046FFF78B
:105BEC0089FBE36A0093236B0193636B0293236A33
:105BFC000693A36A0793054408236A463146304648
:105C0C00CDE904770397FFF7A5FB236B0093636B38
:105C1C000193A36B0293E36B0393636A0693E36AAA
:105C2C0007932D1A08236A4631463046CDE904778E
:105C3C00FFF790FB636B0093A36B0193E36B0293F1
:105C4C00236A0393636A0493A36ACDE90537236B34
:105C5C0007932D1A08236A4631463046FFF77AFB24
:105C6C00A36B0093E36BCDE90137636A0393A36ADB
:105C7C000493E36ACDE90537636B07932D1A082368
:105C8C006A4631463046FFF765FB2D1A0D4C0FD492
:105C9C0035B9082231462046FFF764FD01280FD0A4
:105CAC000823224631463046FFF754FB2D1AEFE706
:105CBC000823224631463046FFF71CFB2D18F7D43B
:105CCC0009B0F0BD24B10700F0B5154689B01C46EB
:105CDC0007460E461A4629466846FFF740FE2346FD
:105CEC006A4639463846FFF72AFE23462A46694655
:105CFC006846FFF724FE23466A4631463046FFF7D6
:105D0C001EFE09B0F0BD2DE9F0438BB01446129D78
:105D1C0015F9046B00961F46804689462B460246B1
:105D2C00214602A8FFF759FD02A9129A0846FFF76F
:105D3C0016FE129B02AA41464046FFF700FE129B3C
:105D4C0002AA21462046FFF7FAFD2B464A46394661
:105D5C0038460096FFF741FD129A394602A8FFF724
:105D6C00FEFD02A92B46424608460096FFF735FD7C
:105D7C0002A92B46224608460096FFF72EFD2B461D
:105D8C004246214620460096FFF727FD129B2246ED
:105D9C0049464846FFF7D3FD2B4602AA414620460A
:105DAC000096FFF71AFD129B224639463846FFF73C
:105DBC00C6FD2B464A46394638460096FFF70DFD80
:105DCC00324602A92046FFF7C1FC0BB0BDE8F083B8
:105DDC002DE9F047B3F9024088461E4604F11F0135
:105DEC002023073491FBF3F708234FFA87F994FB30
:105DFC00F3F4944228BF144649460546FFF763FC6A
:105E0C0022464146FFF766FAB6F90230E4009C429E
:105E1C001FD9E41A05EB87010022C4F120078D423B
:105E2C000ED324364A4629463046FFF79BFC012800
:105E3C000FD04B4632462846BDE8F047FFF78ABAEA
:105E4C0051F8040D20FA04F313430B6000FA07F227
:105E5C00E5E7BDE8F08770B5036813F00105064669
:105E6C00144605D013460A460146FFF743FA054689
:105E7C0021463046FFF78BFC45B104F18042013AD4
:105E8C0056F8223043F0004346F8223070BDF0B58E
:105E9C000F46A1B006461946384615461C46FFF774
:105EAC001DFC20B13046FFF70EFC21B0F0BD2246A0
:105EBC0039466846FFF74AFC294608A8FFF746FC16
:105ECC0010A82146FFF7FFFB012318A81093FFF73A
:105EDC00FAFB224608A96846FFF744FC28B922467B
:105EEC0010A93046FFF732FCDFE7009BDA0709D434
:105EFC0021466846FFF74BFC2246294610A8FFF7BF
:105F0C00AAFFE6E7089BDB0707D4214608A8FFF7A2
:105F1C003EFC2246294618A8F1E7002823461CDD42
:105F2C0008AA69466846FFF715FA21466846FFF746
:105F3C002EFC224618A910A8FFF714FC002805DA3D
:105F4C0010A923462A460846FFF7D4F910A9234680
:105F5C0018AA0846FFF7FEF9CEE708A96A460846D4
:105F6C00FFF7F8F9214608A8FFF711FC224610A903
:105F7C0018A8FFF7F7FB002805DA18A923462A46CC
:105F8C000846FFF7B7F918A9234610AA0846FFF7E9
:105F9C00E1F9BEE70048704720B107002DE9F04F4A
:105FAC00EDB01F46DDF8D8810590B8F9026098F97C
:105FBC00004020231F3696FBF3F676B206F1FF392C
:105FCC0024AB002543F829506CAB03EB89034CA898
:105FDC008A469346394698F9012043F8805C43F889
:105FEC00605CFFF777F998F9012054A8B918FFF70E
:105FFC0071F921464CA8FFF771FB0746002840F0C9
:10600C002E8154A8FFF76AFB0290002840F02981EA
:10601C0008F1240332464CA918460393FFF7A2FB60
:10602C00012840F02081324654A90398FFF79AFBCF
:10603C000128069040F017811CAD0CAF3346039A33
:10604C0054A92846FFF723FF029B47F829305A46EC
:10605C00514638464346FFF7BBFE39463846039B4C
:10606C0000962A46FFF7CBFB0DF5B879039B0096FB
:10607C002A464CA914A8FFF7C2FB224648460599AC
:10608C00FFF764FBA30009EB030A0793059BA10030
:10609C00591808F1440B5046FFF758FB594634A8E1
:1060AC00FFF754FBA3000BEB03013CA8FFF74EFBDF
:1060BC0008F10403494634AA284600940493FFF7D8
:1060CC008CFB53464A463CA934A8CDF80080FFF718
:1060DC001AFE2346049A29462846FFF7D8FE2A467C
:1060EC00514648464346FFF7EFFD029BCDE9083B7E
:1060FC00059B31463846CDE90A39FFF708FB314696
:10610C00814614A8FFF703FB8145B8BF81461FFAEF
:10611C0089F909F1FF3B0FFA8BFB59463846FFF71B
:10612C00ECFA5946071C14A818BF0127FFF7E5FA2B
:10613C00002814BF022300231F430DF1200A22461E
:10614C005AF8277024A83946FFF700FB0DF1B00B65
:10615C00A300F9185846FFF7F9FA21462846FFF72D
:10616C00B2FAA9F10209069B2B600FFA89F90DF11D
:10617C00900AB9F1000F23DA2346049A29462846DF
:10618C00FFF785FE43462A4659465046FFF79CFDCD
:10619C00324651460398FFF7E5FA012804D03346FE
:1061AC00039A5046FFF7D6F8013C64B24CAA23067A
:1061BC004BD5029BB3FA83F040096DB0BDE8F08F6C
:1061CC0043462A46D8F8A47059465046B847494623
:1061DC000CA8FFF792FA4946071C14A818BF012710
:1061EC00FFF78BFA002814BF022300231F4308ABD0
:1061FC0053F8277027B32246394634A8FFF7A6FA7E
:10620C00079B3CA8F918FFF7A1FA43462A463CA97C
:10621C0034A8FFF759FD049B009434AA514644A8B6
:10622C00FFF7DBFA5B4652463CA934A8CDF8008058
:10623C00FFF769FD434644AA29462846FFF77FFB32
:10624C0009F1FF390FFA89F993E752F824105AF83B
:10625C0024304B40029919430291013CA7E7284690
:10626C00ABE73846A9E70298A7E70369C1688B42F8
:10627C009DBF8268D21802F1FF3203F1FF3394BF45
:10628C00501A581A70472DE9F041D0E902740546AE
:10629C003E1B4068964220448846144404D904F0BE
:1062AC0009F8EC60BDE8F0813246E41B04F002F81A
:1062BC00224608EB06016868F1E72DE9F843C5684A
:1062CC000646894617464FF000083469B368706873
:1062DC00A54228BFE418013C621B5C1BBC4228BFD2
:1062EC003C46944228BF144649462844224603F0B3
:1062FC00E1FFB3682544AB4208BF00253F1BA04417
:10630C00A144F560E1D14046BDE8F88310B5114CCD
:10631C00114AA2610223C4E90433104BE361A26465
:10632C004FF480530E4A2362E264002310220D497D
:10633C00A362E01D6362E362A3656365E3652265A6
:10634C0004F014F80849204604F010F82023A37137
:10635C0010BD00BF206C0020D0B10700A86C00203D
:10636C00986C0020D9B10700DDB10700F8B5184CC6
:10637C00182300FB033503FB00402544C46A012CA1
:10638C000F46164611D024B1022C1BD000242046F7
:10639C00F8BD2846FFF769FFB042F8D332463946BC
:1063AC002846FFF770FF3446F1E72846FFF75DFFFC
:1063BC008642344628BF0446224639462846FFF713
:1063CC0062FFE4E72846BDE8F840FFF776BF00BF60
:1063DC00206C0020FFF79ABF41DF7047014B012270
:1063EC001A707047C880002008B50948094B0A4943
:1063FC00C01AC008000440F00400FCF737FB074B40
:10640C00074800221A70BDE8084002F0A1BA00BF8C
:10641C0030A4070030A40700E4B10700C8800020B6
:10642C009964070008B50748074B0849C01AC0080B
:10643C00000440F00300FCF719FBBDE80840FFF72F
:10644C00D3BF00BF30A4070030A4070006B207007A
:10645C00C31E10B50446042B09D8DFE803F0030370
:10646C00080F0F0007494FF4701000F025FB064B86
:10647C001B6833B12046BDE810401847FFF7B4FF46
:10648C00F5E710BD31640700CC80002008B5FCF79F
:10649C00B5FBFCF763F90028FBD10B4D642445F0E8
:1064AC0001054FF47A40A847013CFAD1BFF34F8F56
:1064BC000649074BCA6802F4E0621343CB60BFF392
:1064CC004F8F00BFFDE700BF00B2070000ED00E0FA
:1064DC000400FA0508B50648064B0749C01AC0085F
:1064EC00000440F00400FCF7C1FA002008BD00BF16
:1064FC0030A4070030A40700A1B30700F8B56D4B1A
:10650C006D4C6E49E41AE408240444F00407054673
:10651C003846FCF7ABFA6A4B6A4A1D604FF0A04351
:10652C000020C3F8402702F029FA48B900F080FC9B
:10653C00012800F0B48041B221B1022800F0B780EC
:10654C000320F8BD4FF08043D3F8005415F4803588
:10655C0046D04FF48032C3F800240D465A4E336AAD
:10656C00012B50D0594944F00300FCF77FFA5849ED
:10657C003846FCF77BFA4FF4701400F085FD554A51
:10658C0020211820FCF76AFC08B1FEF74FFE524B95
:10659C001A6802F0F802B02A06D11A68D20742BF74
:1065AC001A6802F04E021A60FFF794FF0028C7D158
:1065BC0020464A4900F080FA494800F049FF00287B
:1065CC00BED148493846FCF751FA00F0A3FDFCF760
:1065DC00CFFCFCF7C3F80028F7D1FFF7FDFEF4E77A
:1065EC00D3F8202502F0F802A82A0AD1D3F82025E6
:1065FC00D00706D5D3F8202502F05602C3F8202583
:10660C00ACE70125AAE743F204031A68364B9A4219
:10661C000FD1726B1DB996F86032012B09D04FF473
:10662C008051324803F09CF818B9314944F002000B
:10663C009BE702F051FBB26901461DB996F8A132F5
:10664C00012B05D02B4803F08BF808B92A49EDE74C
:10665C002A493846FCF70AFA4FF0A043D3F8103514
:10666C00D90301D4264983E71B4B1B6813F0B10FE8
:10667C0001D024497CE702F089FA00287FF460AF4E
:10668C00214D2870214802F063F92B7823B9204959
:10669C004FF4FE70FCF718FD00F03EF801E0FFF738
:1066AC00A3FE1C4944F00100FCF7E0F948E74FF465
:1066BC00A02462E730A4070030A407001AB2070038
:1066CC00CC8000200C0003009C98002031B2070005
:1066DC00CFB20700A87C00201C05004031640700E5
:1066EC005D6407003EB30700DBE5B151FC9A002066
:1066FC005FB207003D9B00209AB20700C2B20700B0
:10670C00F2B2070011B30700C8800020E96307004C
:10671C004EB3070032B3070070B5184B184C194D27
:10672C001949E41AE408240444F004064FF4805296
:10673C003046FCF79FF9D5F8802014493046FCF719
:10674C0099F94FF0FF33C5F88030C5F88031C5F8A2
:10675C008430C5F8843101F067FD20B10C4944F058
:10676C000100FCF783F9FBF7F9FF0028FBD14FF48C
:10677C008050BDE8704000F039B800BF30A407006D
:10678C0030A4070000E100E0BBB30700F1B3070041
:10679C001BB407000346C1F30B0070B520BBB3F567
:1067AC00FE2F21D81B0B013903EB113101264FF0C1
:1067BC008044994200D270BD03F01F025D0906FAB5
:1067CC0002F2032D05D8DFE805F00206090CC4F827
:1067DC0000260133EDE7C4F80426FAE7C4F81026C6
:1067EC00F7E7C4F81426F4E70720E4E730B50446CD
:1067FC002C48002289B0C0F5FE21FFF7CBFF0246E2
:10680C0048B12948294B2A491B1ADB081B0443F0C1
:10681C000100FCF72FF902F05FFA264B9969002270
:10682C0001441046FFF7B6FF024648B11E481F4B05
:10683C0021491B1ADB081B0443F00100FCF71AF971
:10684C00EFF305810023D4E9002083F3148883F34C
:10685C00108883F3118883F31388C1F3080139B9C5
:10686C0082F308884FF0FF339E46004709B030BDD5
:10687C00A2F120044FF0FF35CDE90033CDE902330E
:10688C000493CDE905504FF08073202269462046D1
:10689C00079303F00FFD84F30888AE466FF00603F0
:1068AC001847E3E70020070030A4070030A40700D6
:1068BC0050B407009C98002087B4070073B5274B91
:1068CC0006462748C01AC00800040C463246254923
:1068DC0040F00400FCF7CEF8B4F1807F39D32249A4
:1068EC008F20FCF7F1FB6FF07F43204AA34228BFB7
:1068FC002346D2F80455E41A1D44631E942B96BF0C
:10690C00963474607460347B25F07F4598BF963D57
:10691C00032C03D914497720FCF7D6FB134E04F54E
:10692C00A8734FF4F86046F82350114B43F0010361
:10693C009847104BA200134400221A601B68019365
:10694C00019B4FF4803303FA04F4C6F8044302B0FD
:10695C0070BD952CC7D804499020C2E730A407001D
:10696C0030A40700E6B40700FCB407000040024066
:10697C00E0B407004041024018490A7884B0002A6C
:10698C0029D14FF08043A020D3F81834DB035EBF2D
:10699C00134B01221A60134A0023136012680392EE
:1069AC00039A114A136012680292029A0F4A1360FA
:1069BC0012680192019A0E4A82F82403102050604A
:1069CC000C4A0D48C2F808350123036002201360FD
:1069DC00C2F804030B7004B0704700BFD4800020D1
:1069EC000800004000410240404102404441024046
:1069FC0000E100E00040024008400240244B2DE939
:106A0C00F7431A6842B123490A6801320A6000222E
:106A1C001A601B680093009B1F4D204B204C214E8D
:106A2C00DFF88C80DFF88C901F4FED1AED082D04E9
:106A3C0045F004053368CBB1002333603368019310
:106A4C00224641462846019BFCF714F8227B174945
:106A5C004FF480339340C9F8083322462846FCF79C
:106A6C0009F8616851B12046FFF728FF0436BE4291
:106A7C0004F11004DED103B0BDE8F083A16811B1BC
:106A8C002046FFF71BFF2368002BEFD09847EDE75C
:106A9C0004410240D080002030A4070030A407003D
:106AAC00D45700204041024048410240CDB4070079
:106ABC00BBB4070000400240F8B5114B114E044620
:106ACC0011483768C01AC00800043A460D4640F019
:106ADC0004000E49FBF7CEFF3A7B4FF48033934012
:106AEC000B4AC2F808334CB13668FFF745FF3560E6
:106AFC0021463046BDE8F840FFF7E0BEF8BD00BFC8
:106B0C0030A40700F457002030A40700BBB40700E2
:106B1C000040024070B5074B1C6805460E46A0604D
:106B2C00FFF72AFF266029462046BDE87040FFF794
:106B3C00C5BE00BFF8570020034A044B1068D3F8B9
:106B4C00043503EB00607047D08000200040024009
:106B5C00014B01221A707047D58000202DE9F341BA
:106B6C00274FFA6A7E6ABC6CAC2A31D17B6B1C4411
:106B7C00F61A244B244D0096ED1AED082D0445F021
:106B8C0004082346214A22494046FBF786FFFB6A4C
:106B9C00AC2B23D0324621461C4803F050FB28B3C3
:106BAC00334622461B494046FBF76DFFFBF7D6FDEB
:106BBC000028FBD100F0AEFA2046314601F016FB5E
:106BCC000446C0B1144945F00100FBF74FFF12E039
:106BDC00002CCED102F096F80446CAE73246A4F552
:106BEC0080410A4803F02BFB0028D3D10B494046C7
:106BFC00FBF73CFF0024204602B0BDE8F08100BF4B
:106C0C009C98002030A4070030A407000020070047
:106C1C005AB507008FB50700F3B50700BCB50700E0
:106C2C002DE9F04F3B4B17463B4A9B1A87B0DB08CC
:106C3C001B040493814243F00403054689460393E5
:106C4C0008D136491846FBF711FF0024204607B03F
:106C5C00BDE8F08F03D232494F20FCF735FAC5F36B
:106C6C000B031BB12E495120FCF72EFAA9EB05039F
:106C7C00B3F5805F4FEA133B03D229495420FCF74C
:106C8C0023FA00F001FABBF1080F28BF4FF0080BF4
:106C9C0007F6FF784FEA0B334FEA183805930FB914
:106CAC003C46D3E7C3452CBFC246DA464FF0000240
:106CBC00514628462CBF3E46059E01F051FA04462B
:106CCC000028C3D12B464A46164903980096FBF779
:106CDC00E4FEF21C234622F003024946284601F04A
:106CEC0001FA04460028B1D10F4A136BBF1B35447F
:106CFC00B1441E44166301F031FEA8EB0A080446A9
:106D0C000028CCD0049B094943F00100FBF7AEFEF0
:106D1C009CE700BF30A4070030A407000DB60700A5
:106D2C001CB607007DB607009C9800209EB6070095
:106D3C002DE9F04701F0F6FF344C354BDFF8ECA0B1
:106D4C003449DAF84880DAF83050DAF83470E41A5A
:106D5C00E408240444F0040906464846FBF786FE82
:106D6C0042F2040358F8032003F1A34303F547133D
:106D7C0003F2D7539A4208D0274944F00100FBF79D
:106D8C0075FE03252846BDE8F087DAF83030BB42A3
:106D9C00984405D121494846FBF768FE0025F1E7E8
:106DAC00E3B94FF4405248461278142A81BF43F29B
:106DBC0014021B491268B2FBF1F208F5005198BF9E
:106DCC001A460978142981BF42F2140358F80310AB
:106DDC00134BB1FBF3F31349FBF755FE7A1B02F689
:106DEC00FF7222F47F62701922F00F024146FFF706
:106DFC0017FF054628B10C4944F00100FBF736FE9D
:106E0C00C0E7BDE8F04701F0A9BD00BF30A4070002
:106E1C0030A40700A4B80700C9B80700FDB80700E4
:106E2C0040420F000FB9070038B907009C980020AA
:106E3C002DE9F0475C4B5D4C5D4F5E49E41AE4086C
:106E4C00240444F004084046FBF710FEFB6AA52B13
:106E5C0000F0858009D8012B20D044F0030056495E
:106E6C00FBF704FE0020BDE8F087AA2B00F082801F
:106E7C00AC2BF2D151494046FBF7F8FD5049404646
:106E8C00FBF7F4FDFFF754FF054600287BD04D4976
:106E9C0044F00100FBF7EAFD012620E04A49404698
:106EAC00FBF7E4FD7E6AD7F8489001F015FF3D6BC7
:106EBC00464900EB050A4046FBF7D8FD396B4944BF
:106ECC008A4514BF721B00225046FFF7A9FE0546E7
:106EDC0068B13F4944F00100FBF7C8FD0026FB6A8E
:106EEC003C492A4644F00100FBF7CDFD12E001F0CD
:106EFC00F3FE2A463146FCF7CBF8BA6A904281463B
:106F0C0026D135494046FBF7B1FD0123C7E907936C
:106F1C00BE612E463148324D01F0D2FE002331487D
:106F2C002B7001F01BFD2B78814623B92E494FF4B1
:106F3C00D170FCF7C9F8B9F1000F2CD196B33B6AAC
:106F4C00012B2FD140462949FBF790FD02208AE7FF
:106F5C000346274944F00100FBF795FDD9E7254985
:106F6C004046FBF783FDFFF7E3FE01260546002DA7
:106F7C00D0D0B4E720494046FBF778FDFFF7EEFD93
:106F8C0000260546F3E7FFF7E9FD054608B11B4966
:106F9C007EE70126BEE744F001001949FBF766FDC8
:106FAC00032060E701205EE730A4070030A407004F
:106FBC009C980020D7B60700E3B707008CB70700F2
:106FCC009AB70700B7B70700F8B6070002B7070073
:106FDC0038B90700FCB707001DB70700C0980020A0
:106FEC00D58000205D6B07001CB607002EB807008B
:106FFC0032B707007AB7070083B70700CDB7070091
:10700C008AB807000A4AD2F800347BB10948002339
:10701C00D2F80815D940C90748BF03F5C07103F170
:10702C00010348BF42F82100072BF1D1704700BF84
:10703C00000001403546526E08B50748074B084919
:10704C00C01AC008000440F00300FBF70FFDBDE8B8
:10705C000840FFF7D7BF00BF40A4070030A40700CB
:10706C00C2B9070007B5074B00221A601B680193D1
:10707C00019BFBF7C3FDFBF771FB0028FBD103B0B1
:10708C005DF804FB0001014070B5194E33784BBB21
:10709C00184C1949194B641AE408D3F80024240439
:1070AC0044F00304FAB1D3F8045515492A46204696
:1070BC00FBF7E0FC40F616539D42B8BF1D46A5F504
:1070CC004865FFF79FFF2A460E492046FBF7D2FC86
:1070DC000D492846FFF71EFD0C4B4FF480321A6009
:1070EC000123337070BD0A492046FBF7BFFCF7E75C
:1070FC00D680002040A4070030A407000000014007
:10710C0051B907006AB907004570070000E100E0BB
:10711C009CB90700034BD3F800340BB1FFF772BFD7
:10712C00704700BF000001400C4B1B78062B10D1A0
:10713C000B4B1B681A070CD10A4B186800F0F003B4
:10714C00302B08D000F0E000A0F140035842584129
:10715C007047002070470120704700BFE00F00F01F
:10716C00E40F00F0E80F00F0094B1B78062B0CD154
:10717C00084B1B681A0708D1074B186800F0F00081
:10718C00A0F130035842584170470020704700BFAF
:10719C00E00F00F0E40F00F0E80F00F008B5FFF787
:1071AC00C3FF28B17D4B7E4A1B68C3F304231360D5
:1071BC00FFF7DAFF10B17B4B7B4A1A60FFF7B4FF85
:1071CC0028B17A4B7A4A1B68C3F342331360FFF73A
:1071DC00CBFF20B1774AD36823F08073D360FFF7DD
:1071EC00A3FF40B14FF080430022C3F80C21C3F839
:1071FC001021C3F83825FFF7B7FF10B16E4B0322EF
:10720C001A60FFF7B1FF40B16C4B05221A600122E6
:10721C009A6700229A603F225A60694B1B78062BB2
:10722C0050D1684B1B6819074CD1674B1B6803F096
:10723C00F003502B46D14FF08052644BD2F804141B
:10724C00C3F82015D2F80814C3F82415D2F80C147E
:10725C00C3F82815D2F81014C3F82C15D2F814144E
:10726C00C3F83015D2F81814C3F83415D2F81C141E
:10727C00C3F84015D2F82014C3F84415D2F82414DE
:10728C00C3F84815D2F82814C3F84C15D2F82C14AE
:10729C00C3F85015D2F83014C3F85415D2F834147E
:1072AC00C3F86015D2F83814C3F86415D2F83C143E
:1072BC00C3F86815D2F84014C3F86C15D2F84424FE
:1072CC00C3F87025FFF730FF28B1414B414A1B68CA
:1072DC0003F04F031360FFF727FF48B14FF08043D3
:1072EC00D3F80024D20744BF6FF00102C3F8002486
:1072FC00394B1B68062B08D1384B1B68062B01BF7A
:10730C00374A136843F480631360364AD2F88830E6
:10731C0043F47003C2F88830BFF34F8FBFF36F8F05
:10732C004FF01023D3F80022002A03DBD3F80432E9
:10733C00002B2FDA2C4B0122C3F80425D3F80024A0
:10734C00002AFBD04FF010221521C2F80012D3F8FE
:10735C000024002AFBD04FF010231522C3F804227E
:10736C00214B1A46D3F800140029FBD00021C3F896
:10737C000415D2F80034002BFBD0BFF34F8F194902
:10738C001A4BCA6802F4E0621343CB60BFF34F8F11
:10739C0000BFFDE7164B174A1A6008BD2403001006
:1073AC004035014074C007400DF0ADBA44020010E6
:1073BC003C050040F0ED00E0A005004010560040F8
:1073CC00E00F00F0E40F00F0E80F00F000C0004008
:1073DC0058020010E40E004030010010340100107F
:1073EC003C17004000ED00E000E001400400FA050D
:1073FC00FC5700200090D00313681F2B10B51446C7
:10740C0007D900220830FCF7FDFE08B920232360C1
:10741C0010BD48F21450FBE70830FCF7CFBE083023
:10742C00FCF79CBE007800F001007047062810B5F0
:10743C00044602D1002001F009FC044B1B681BB16F
:10744C002046BDE81040184710BD00BFD880002072
:10745C0038B5104B104C1860104B1149E41AE40865
:10746C00240444F00300FBF701FB0020FFF7DEFFD0
:10747C000C4801F0B3FB054620B90A48BDE838407A
:10748C0001F086B90246084944F00100FBF7F2FA14
:10749C00284638BDD880002030A4070030A407004F
:1074AC009CBB070039740700AFBB07006CDF70474B
:1074BC006DDF704772DF704773DF704774DF7047A2
:1074CC0075DF704776DF70477ADF70477CDF704777
:1074DC007DDF70477FDF704786DF70478FDF704737
:1074EC0090DF7047A8DF7047AADF7047ADDF7047A9
:1074FC00AEDF7047B0DF7047B1DF7047B5DF704764
:10750C0062DF704766DF704713DF70477FB500237B
:10751C00CDF80A30ADF80E300A4BADF806109B8949
:10752C00ADF8083001238DF80A300DF10603CDE9D2
:10753C000430054B02A91888FFF7DAFF07B05DF895
:10754C0004FB00BF469100200258002010B5094BE7
:10755C00094904460948C01AC0080004224640F0F4
:10756C000400FBF787FA21460548BDE81040FBF7FD
:10757C0025BF00BF30A407001EC1070048A40700A8
:10758C00B4A4070070B5204E356815F0010532D053
:10759C001E4B984236D01E4B1E4C1F4D1F49E41AF1
:1075AC00E408240444F004042046FBF75FFA2A881C
:1075BC004FF6FF739A4220D019492046FBF756FA32
:1075CC003368288843F0040313213360FFF77AFFF4
:1075DC00054680B9134EC82546F001064FF47A4093
:1075EC00B047013DFAD102F0F9FB054618B90E4936
:1075FC002046FBF73BFA284670BD0C4B1878FFF77A
:10760C005DFFF0E70025F6E77C9100201CA4070045
:10761C0030A4070048A407000258002077BC0700DC
:10762C0094BC070010C10700A3BC07000058002041
:10763C0070B518228CB00DEB0200002102F063FE35
:10764C00282308932448254B2549264CC01AC008EA
:10765C000004012540F004008DF818508DF82D50D1
:10766C00FBF704FA1623ADF806300023CDF80E30E4
:10767C00CDF81230ADF816300223092606222370FD
:10768C0023715923A27063710322FE230DF10601AD
:10769C00A0190294ADF80C606570E270A371FFF74D
:1076AC0017FFB8B9BDF8063026725A19E271BDF849
:1076BC000C200D4C134402A906AA2046ADF80C3040
:1076CC00FFF7F8FE30B92078FFF7F8FE294620784E
:1076DC00FFF7F2FE0CB070BD48A4070030A4070001
:1076EC00E9BB07005A910020005800202DE9F04119
:1076FC000388212B8CB0044600F06B8133D8122BFD
:10770C0000F03A8108D8102B57D076D8012B00F016
:10771C00AB810CB0BDE8F081142B00F03A82C0F0C4
:10772C0001811A2B00F046821F2BF2D1B24BB34DC4
:10773C00B349ED1AED082D0445F00400FBF796F95A
:10774C00B04B04F108011888FFF7BAFE0446002874
:10775C00DFD00246AC4945F00100FBF78BF920461F
:10776C00FDF764FDD5E7502B5CD013D8232B00F02C
:10777C00C780C0F01F81242BCBD19F4B9F486289BF
:10778C00A249C01AC0080004E38940F00400FBF7CA
:10779C007AF9BEE7522B00F00D82C0F06B81552BAD
:1077AC0000F08280562BB4D18379002BB1D1954B4C
:1077BC0013211888FFF786FE9AE08F4B8F4D944962
:1077CC00ED1AED082D0445F00400FBF74FF98D4B35
:1077DC00A2881A808F4A12681C460AB10120904771
:1077EC008D492088FFF76CFE0246002891D08B490A
:1077FC0045F00100FBF73EF98BE7824B4FF6FF7229
:10780C001A80874B1B685A0704D4FFF711FF08B185
:10781C00FDF70CFD7F4B1B68002B3FF47AAF022069
:10782C00984776E77F4FC288BB889A427FF471AF46
:10783C007D48724DFBF796FD6F4BED1AED082D044C
:10784C00064628B9794945F00200FBF70FF960E7C5
:10785C00F4230093238A7649024645F00400FBF793
:10786C001CF9228A04F11201304602F023FD182281
:10787C0000210DEB020002F046FD08238DF81830B4
:10788C006C4B08936C4B0797CDE9093606A8238AF5
:10789C00ADF82C3000F05CFF00283FF43AAF3146D5
:1078AC006148FBF78BFD34E7C288F62A24D8D31E37
:1078BC009B0723D0D31F9BB2013B594201F003011C
:1078CC0003F0030302F1FF3458BF4B42E31A9CB29E
:1078DC00494B4A485949C01AC0080004234640F095
:1078EC000400FBF7D0F8474B21461888FFF706FE3B
:1078FC0000283FF40EAF33E7F724E9E71446E7E737
:10790C003D4B3E484E49C01AC008000440F00400EC
:10791C00FBF7ACF8002206A9A088CDE90622FFF7F8
:10792C00DFFDE5E7344B354C4649364DE41AE408A7
:10793C00240444F004042046FBF798F80023ADF827
:10794C001A300223ADF8183006AA04AB42F6052112
:10795C0028880793FFF7CAFD08B1FDF767FCBDF84F
:10796C00102039492046FBF785F800231A4685215B
:10797C002888FFF7AFFDBBE71F4B204D3349ED1AAD
:10798C00ED082D0445F004052846FBF76FF86289D5
:10799C002F492846FBF76EF822892E492846FBF71B
:1079AC0069F8A2892C492846FBF764F8E2892B492F
:1079BC0028461FE7104B11482949C01AC008237AE2
:1079CC0000930004637AA27A40F00400FBF765F898
:1079DC009FE6094B09482349C01AC008000440F02F
:1079EC000400FBF743F8002306A9A088ADF8183073
:1079FC00FFF774FD7CE700BF30A4070048A4070024
:107A0C00B1BF070002580020E0BF0700AEBE070060
:107A1C00C0BD07008091002016C10700CABD070039
:107A2C007C91002046910020B4A40700F8BD07000B
:107A3C0017BE0700157C07005975070037BE0700F5
:107A4C007DBE0700ECBE070014BF070037BF070060
:107A5C005EBF070074BF07008ABF07009CBF07000A
:107A6C0015C007004FC007005B4B00211888FFF7BB
:107A7C0049FD3DE78379002B3FF44BAE022B7FF49D
:107A8C0048AE564D0289AB899A427FF442AE837B55
:107A9C00012B7FF43EAE00230121CDE906338DF896
:107AAC001E10018AADF820104B4E418AADF8221001
:107ABC00022200F114018DF818200991ADF8102064
